:100000000C94A9000C94EC000C94D1000C94D10039
:100010000C94D1000C94D1000C94D1000C940A02E1
:100020000C94D1000C94D1000C94D1000C94D1000C
:100030000C94D1000C94D1000C94D1000C94D100FC
:100040000C94D1000C94D1000C94D1000C94D100EC
:100050000C94D1000C94D1000C94D1000C94D100DC
:100060000C94D1000C94D1004772656574696E6779
:10007000732C2070726F6772616D2100090222007B
:100080000101008032090400000103000100092180
:10009000010100012223000705810308000A120163
:1000A000100100000008C016DB2700010102030157
:1000B00036036D0061006B0065006800610063003D
:1000C0006B0076006F00690064002E0063006F0013
:1000D0006D003A006B006500790062006F006100FE
:1000E00072006400310020034D00480056004C00AF
:1000F0006900620020006B006500790062006F00FB
:1001000061007200640022036D0061006B006500F5
:100110006800610063006B0076006F006900640096
:100120002E0063006F006D00040309040501090639
:10013000A101050719E029E71500250175019508BA
:100140008102950175082565190029658100C000A7
:10015000700311241FBECFEFD8E0DEBFCDBF11E08A
:10016000A0E0B1E0EEE5F6E102C005900D92A838FE
:10017000B107D9F712E0A8E8B1E001C01D92AC3494
:10018000B107E1F711E0C2E5D1E004C02297FE011A
:100190000E940E0BC035D107C9F70E9488020C944B
:1001A0002D0B0C940000A82FB92F80E090E041E0C7
:1001B00050EA609530E009C02D9182279795879588
:1001C00010F084279527305EC8F36F5FA8F3089579
:1001D000EADF8D939D930895CF93CFB7CF93DF93AD
:1001E000C3954C9BE9F74C9B11C04C9B0FC04C9B9B
:1001F0000DC04C9B0BC04C9B09C04C9B07C04C9B3B
:1002000005C04C9B03C04C9B01C083C06F93C09141
:100210002F02DD27CA5CDD4F2F9320E400C065E08C
:100220004C9B03C02F916F91DECF0F931F934F9381
:1002300045E55F9355E53F933BE014E009B1047158
:100240002EC06A95C9F03150D8F109B1047101137B
:100250000BC008942795299320E4555500F46A951E
:1002600069F701E069B10BC0102F66E0269529936C
:1002700020E4555518F3E2CF0FEF69B10000162FB7
:10028000455500F0404066E014710030E2F221F084
:10029000000009B1047103C009B10471A9F0011390
:1002A00009C00894279568F200C06A95A9F700E094
:1002B00069B1E5CF102F66E0269528F20000ECCF5B
:1002C00011E01CBB002719C03B503195C31BD04027
:1002D00011E01CBB0881033C09F10B34F9F02091BB
:1002E0002D021981110F1213EDCF4A81441F0936D7
:1002F00051F10D3211F0013E29F7009334023F9184
:100300005F914F911F910F912F916F91CCB3C0FDD1
:1003100067CFDF91CF91CFBFCF9118952091340255
:10032000222369F310913202112381F5343082F1D6
:100330003093320220932E0210912F023BE0311BAA
:1003400030932F0225C0009132020130FCF40AE5FF
:100350004F7049F43091000134FD1BC0009300013F
:10036000C6E1D2E01AC03091210234FD12C00093E0
:100370002102C2E2D2E011C0052710E000C00BB993
:1003800019C0052710E0221F00C01DC04AE502C0A9
:1003900032ED432FC4E1D0E032E01AB114615C9A2F
:1003A0000BB11AB954E120E869E420FF05270BB925
:1003B0002795179500C000001C3FF0F66695A8F73A
:1003C000A1F720FF05270BB92795179500001C3FC3
:1003D000C0F629913A9541F70B7E10913302110F27
:1003E0000BB9C651D04011F010932D0211E01CBB87
:1003F00000611AB11B7E402F4B7E55E05A95F1F7F4
:100400000BB91AB94BB97BCFCF93DF93CDB7DEB71A
:10041000F894FFCF1F920F920FB60F9211242F93D3
:100420003F934F935F936F937F938F939F93AF937C
:10043000BF93EF93FF93CF93DF93CDB7DEB789E8F8
:1004400091E00E944F08DF91CF91FF91EF91BF9112
:10045000AF919F918F917F916F915F914F913F915C
:100460002F910F900FBE0F901F901895CF93DF9391
:1004700000D0CDB7DEB79A8389838BED91E00E94DF
:10048000F6040F900F90DF91CF910895CF93DF93F3
:1004900000D000D0CDB7DEB79A8389837C836B838D
:1004A00028E630E085E092E0B9010E94E4030F9075
:1004B0000F900F900F90DF91CF910895CF93DF931E
:1004C00000D0CDB7DEB79A83898389819A812DE0E8
:1004D00031E0FC01318320830F900F90DF91CF91A9
:1004E0000895CF93DF9300D0CDB7DEB79A83898389
:1004F00089819A810E945E0289819A8127E031E098
:10050000FC01318320830F900F90DF91CF910895EC
:10051000CF93DF93CDB7DEB760970FB6F894DEBF09
:100520000FBECDBF84E690E024E630E0F9012081E3
:100530002F6EFC01208384E690E024E630E0F90190
:1005400020812F7BFC01208383E590E023E530E0D0
:10055000F9012081217FFC01208389E891E064E09A
:1005600049EF20E00E94B20789E891E026E332E0FB
:10057000B90140E050E020E030E000E010E00E94EF
:10058000600889E891E00E94DF0778948BED91E0A4
:100590009E012F5F3F4FB9010E940F05CE010196CA
:1005A0004AE050E060E070E020E030E00E94790432
:1005B0001F82188619861A861C861B86CE010F9606
:1005C0000E947102CE010F969E878D878BED91E080
:1005D0009E012F5F3F4FB9010E9422058BED91E0F4
:1005E0000E94BB0583E590E023E530E0F90120811E
:1005F0002160FC012083889583E590E023E530E0CD
:10060000F90120812E7FFC012083E8CF8F92AF92E9
:10061000BF92CF92DF92EF92FF920F931F93CF93EF
:10062000DF9300D000D0CDB7DEB79A8389837C8377
:100630006B8389819A818130910509F041C08B815A
:100640009C812FEF8F3F9207D9F589E891E061E017
:1006500040EB50E021EB30E003EB10E00F2EF4EB29
:10066000EF2EFF24F02D0F2EF2EBCF2EDD24F02DF8
:100670000F2EF0E7AF2EBB24F02D882483940E9428
:1006800036078BED91E049E851E023EA31E0BA0109
:10069000A90124E008E512E00E94D9048CEF91E062
:1006A0002BEE31E0B90141E10E94740681E092E055
:1006B0004CEF51E02BED31E0BA01A9010E94700826
:1006C0000F900F900F900F90DF91CF911F910F918E
:1006D000FF90EF90DF90CF90BF90AF908F900895F4
:1006E000CF93DF93CDB7DEB781E090E06FEF7FEF80
:1006F0000E940603DF91CF910895FC0183E191E010
:100700009183808373876287138212821582148299
:1007100017821682108611860895CF93DF93EC011D
:10072000EE81FF81309719F08A819B810995BE0186
:100730006E5F7F4F8A859B8548E00E94B9068823BB
:1007400021F01D861C8680E005C08A819B819D87E3
:100750008C8781E0DF91CF910895CF93DF93EC01F7
:10076000EC85FD85309739F08885882311F08491D8
:1007700003C0808101C080E09985992319F0882306
:1007800051F01BC02A813B814C815D81240F351FB4
:10079000E217F30791F4CE010E948D03882301F73D
:1007A0001D861C861B821A821D821C821F821E824D
:1007B000188619868FEF9FEF04C03196FD87EC876E
:1007C00090E0DF91CF910895EF92FF920F931F93E6
:1007D000CF93DF93CDB7DEB728970FB6F894DEBF7F
:1007E0000FBECDBF8C017B01DC011A968D919C91CF
:1007F0001B9768E00E94E706882309F5FA82E982E0
:100800001C821B821E821D8281E08F838887F801F3
:1008100082859385BE016F5F7F4F48E00E94070786
:10082000D8011C968D919C911D97009751F4ED91E4
:10083000FC910190F081E02DC801099502C081E092
:1008400001C080E028960FB6F894DEBF0FBECDBF82
:10085000DF91CF911F910F91FF90EF900895CF936B
:10086000DF93FC01EB0140815181628173818881BA
:100870009981AA81BB81481759076A077B0770F0E5
:10088000481759076A077B0759F481E0448155816D
:100890002C813D814217530720F002C081E001C046
:1008A00080E0DF91CF910895CF93DF93FC01EB01BE
:1008B000408151816281738188819981AA81BB8144
:1008C00084179507A607B70770F0481759076A07F6
:1008D0007B0759F481E0448155812C813D81421789
:1008E000530720F402C081E001C080E0DF91CF9186
:1008F0000895CF92DF92EF92FF92FC016A017B0193
:1009000084819581820F931F0AC04F5F5F4F6F4FA5
:100910007F4F4083518362837383885E93409583C6
:10092000848384819581408151816281738123E038
:10093000883E920750F74C0D5D1D6E1D7F1D408354
:10094000518362837383FF90EF90DF90CF9008957F
:10095000CF93DF93FC01EB01848195812C813D8154
:10096000820F931F958384830BC00196A11DB11D37
:1009700080839183A283B383285E334035832483AD
:100980002481358180819181A281B38143E0283E19
:10099000340758F7488159816A817B81480F591F74
:1009A0006A1F7B1F4083518362837383DF91CF91E2
:1009B00008950F931F93FC0171836083148681E077
:1009C000858717870687CA0130E007C0DC016EE023
:1009D0001D926150E9F70E963F5F3217B9F74283D7
:1009E0005383358314821F910F910895FC018285F2
:1009F000938501969387828723E0883E920770F063
:100A00001386128646815781608571854F5F5F4FDF
:100A10006F4F7F4F46835783608771870895DC014E
:100A2000FB011A968D919C911B9795838483169652
:100A30008D919D910D90BC91A02D80839183A28377
:100A4000B3830895CF92DF92EF92FF920F931F939B
:100A5000CF93DF938C01D62EC72EFC019481858124
:100A6000981709F47EC0C0E018C02C2F30E0220F88
:100A7000331FC90143E0880F991F4A95E1F7821B94
:100A8000930BF80162817381680F791F8D2D9C2D66
:100A90000E942F04882329F4CF5FF8018481C817AE
:100AA00020F3F8018481A281B381C817E8F58C2F67
:100AB00090E0880F991F7C0163E0EE0CFF1C6A95A3
:100AC000E1F7E81AF90A4481D0E0CE010196880FD7
:100AD000991F9C0153E0220F331F5A95E1F7281B01
:100AE000390BBD016E0D7F1D842F90E08C1B9D0B7B
:100AF000880F991FAC01440F551F440F551F440F19
:100B0000551F481B590BCD01820F931F0E94120BDA
:100B1000F801828193818E0D9F1D6D2D7C2D4EE0FD
:100B200050E00E94120B17C0F8012481822F90E040
:100B3000880F991FFC0143E0EE0FFF1F4A95E1F774
:100B4000E81BF90BEA0FFB1FAD2DBC2D8EE00D90BD
:100B500001928150E1F7F80184818F5F848380E006
:100B600001C081E0DF91CF911F910F91FF90EF9035
:100B7000DF90CF9008959F92AF92BF92CF92DF9275
:100B8000EF92FF920F931F93CF93DF9300D000D08B
:100B900000D0CDB7DEB77C018E010F5F1F4FB801CB
:100BA0000E940F05DD24902EC12E26C0FB018681F8
:100BB0009781A085B1850097A105B105B9F0C7015E
:100BC0000E940F05D70112968D919C9113978A0D63
:100BD0009B1DBC016A5F7F4F0E94A804F7016281E0
:100BE00073816A0D7B1DC7010E942205D394C70142
:100BF000692D7C2D0E940F05D70114968C911497B6
:100C0000D81690F58D2D90E0880F991F5C0123E098
:100C1000AA0CBB1C2A95E1F7A81AB90A12960D91E5
:100C20001C9113970A0D1B1D892D9C2DB8010E9444
:100C300054048823C9F0F80184859585DC01ED9181
:100C4000FC910190F081E02DB8010995F7016281D6
:100C500073816A0D7B1DDB011A968D919C911B9708
:100C6000009709F4A3CFABCFDD2061F1F7018481B8
:100C7000D81620F50280F381E02DD70114968C91CF
:100C80002D2D30E0220F331FB90113E0660F771FBF
:100C90001A95E1F7621B730B6E0F7F1F90E08D19A1
:100CA0009109880F991FAC0113E0440F551F1A9545
:100CB000E1F7481B590BCF010E94120BF701848109
:100CC0008D19848326960FB6F894DEBF0FBECDBF74
:100CD000DF91CF911F910F91FF90EF90DF90CF9018
:100CE000BF90AF909F900895FC0171836083428311
:100CF000138214820895FC019381892F8F5F2281D2
:100D0000821709F480E02481821741F0A081B1812B
:100D1000A90FB11D6C93838380E0089581E008954D
:100D2000FC0194818381891769F0A081B181A90FA9
:100D3000B11D8C919F5F2281921709F490E09483FA
:100D400090E008958FEF9FEF0895FC01438150E0FC
:100D5000848190E09A01281B390B37FF08C022815B
:100D600030E0281B390B240F351F2F5F3F4F822F98
:100D70000895CF92DF92EF92FF920F931F93CF933C
:100D8000DF930F92CDB7DEB78C01F62EE42E798378
:100D90000E94A50679818E1578F0CF2CD72E06C03B
:100DA000C8010E949006F60181936F018C2D8F1966
:100DB0008E15B0F380E001C081E00F90DF91CF91FC
:100DC0001F910F91FF90EF90DF90CF9008950F93B8
:100DD0001F93CF93DF930F92CDB7DEB78C0169835A
:100DE0000E94A506482F50E0F801228130E02150F2
:100DF00030406981261B310981E0241735070CF04A
:100E000080E00F90DF91CF911F910F910895CF92C5
:100E1000DF92EF92FF920F931F93CF93DF930F9286
:100E2000CDB7DEB78C01F62EE42E642F79830E94B5
:100E3000E7067981882379F4CF2CD72E06C0F601F6
:100E400061916F01C8010E947B068C2D8F198E1550
:100E5000B0F380E001C081E00F90DF91CF911F914E
:100E60000F91FF90EF90DF90CF9008958F92AF9207
:100E7000BF92CF92DF92EF92FF920F931F93CF9387
:100E8000DF93CDB7DEB7FC015183408333832283E8
:100E900015830483F782E682D186C086B386A28654
:100EA000848681E08687678788E0808B1586118A33
:100EB000158A148A118E108E138A128A178A168A3E
:100EC000DF91CF911F910F91FF90EF90DF90CF9026
:100ED000BF90AF908F900895DC011296ED91FC9138
:100EE00013978081887F682B60830895FC01868535
:100EF000823079F0823038F08430E1F0843078F05C
:100F0000853079F523C0A081B1818C918C7F82607E
:100F10000AC0A081B1818C918C7F81600FC0A081BB
:100F2000B1818C9183608C930280F381E02D80816C
:100F3000877F0AC0A081B1818C9183608C930280ED
:100F4000F381E02D8081886080830895A081B18144
:100F50008C9183608C930280F381E02D8081877F68
:100F600080830895EF92FF921F93CF93DF9300D079
:100F7000CDB7DEB77C011FB7F894DC011D966C93EA
:100F80002A8349830E946C07D7011896ED91FC9142
:100F9000199710821496ED91FC9115974981408321
:100FA0001696ED91FC9117972A8120831FBF0F9011
:100FB0000F90DF91CF911F91FF90EF9008951F93B5
:100FC000CF93DF93EC011FB7F894E885F985108281
:100FD0006D850E946C07CE010E9476078A899B89E5
:100FE000009769F0EA85FB85208181E090E00C8420
:100FF00002C0880F991F0A94E2F7282B2083EE8104
:10100000FF8180818823D9F08E899F890097B9F06C
:10101000EA85FB8540812C8530E02F5F3F4F81E0E2
:1010200090E002C0880F991F2A95E2F7482B408371
:1010300081E0898B1FBFDF91CF911F910895198A9D
:10104000F9CF1F93CF93DF93EC011FB7F89460E0C3
:101050000E946C07EA85FB85408121E030E0C901F0
:101060000C8402C0880F991F0A94E2F780958423AC
:1010700080838989882371F0EA85FB8540818C858E
:1010800090E0019602C0220F331F8A95E2F7209567
:10109000242320831FBFDF91CF911F910895CF9309
:1010A000DF93EC018E85882319F4CE010E9421087C
:1010B000EA89FB898C899D890995DF91CF910895F3
:1010C0000F931F93FC01738B628B558B448B378B73
:1010D000268B118F008F1F910F9108950895089509
:1010E0000F931F93CF93DF93EC018B01BA010E9402
:1010F000950ACE010496B8010E947D0389E191E032
:101100009983888308969D838C831A8ADF91CF9177
:101110001F910F910895262F21562A3110F42C5F2C
:101120000BC0262F21542A3110F42C5F11C0262F1A
:101130002153293018F4225E40E038C0E62FE152F6
:10114000EE35C0F5F0E0ED5DFE4F20812A3291F1E1
:1011500042E02CC040E02BE229C040E025E526C05B
:1011600040E02FE223C040E020E320C040E021E344
:101170001DC040E023E31AC040E024E317C040E074
:1011800026E314C040E027E311C040E028E30EC08E
:1011900040E02DE20BC040E02EE208C040E025E335
:1011A00005C040E028E202C040E02CE2622F0E942D
:1011B000EC0A0895603359F16133A8F46C32F9F206
:1011C0006D3260F46732C1F2683228F4693011F28E
:1011D0006A3051F7E6CF6A3239F7BFCF6E3291F2FB
:1011E0006F3298F6D5CF6B3509F4BACF6C3530F441
:1011F0006B3309F4BECF6D33B9F6CDCF6D3509F43D
:10120000B2CF6D3508F4B2CF603671F6C7CF40E08B
:1012100027E2CCCFCF93DF93EC010E946F0A80913D
:10122000210284FF16C0CE0104960E94AD03BC01CA
:101230008FEF6F3F780741F48A89882351F01A8A2B
:10124000CE010E94080B05C081E08A8BCE010E946E
:101250008B08DF91CF910895CF93C62F2091210263
:1012600024FF07C02091220238E82327209322027E
:1012700003C02AE520932102FC018C2FA3E2B2E0F7
:1012800091919D938150E1F783E292E06C2F0E944F
:10129000E800CC5FC0932102CF910895CF93DF93F4
:1012A00080913202835087FDB6C020912F02909129
:1012B0002E029D3209F0ADC0883009F0AAC08CE042
:1012C00090E0821B9109EC01CA5CDD4F23EC209376
:1012D00016022AE5209300011092880128812076C9
:1012E00021F0CE010E94720A8BC03A8110921F0237
:1012F0002981222331F4109220022FE132E082E092
:101300007BC0253019F43093330273C0263009F0C6
:101310005AC0FC01E85CFD4F2081875C9D4FFC01B9
:101320008081813041F48EE990E090933102809386
:10133000300282E144C0823019F48CE790E010C0A2
:10134000833041F5222341F488E291E09093310209
:101350008093300284E033C0213041F486E091E094
:10136000909331028093300282E229C0223041F40E
:1013700086EE90E0909331028093300280E21FC0AD
:101380002330E1F480EB90E09093310280933002BF
:1013900086E315C0813241F48EE890E090933102EB
:1013A0008093300289E00BC0823241F48CE291E0FC
:1013B000909331028093300283E201C080E090E498
:1013C000909388011DC0283069F0293019F43093BA
:1013D00035020FC02A3049F02B3059F48BE480934A
:1013E000220207C025E332E002C02FE132E081E0B3
:1013F00003C02FE132E080E03093310220933002CD
:101400009F81992321F49E81981708F4892F809356
:101410000101109232028091000184FF46C0809148
:1014200001018F3F09F441C0C82F893008F0C8E09E
:101430008C1B809301018091160298E88927809384
:101440001602CC2329F18091300290913102209133
:10145000880126FF0AC0FC012C2FA7E1B2E03491DD
:101460003D9331962150D9F708C0DC012C2FE7E1DC
:10147000F2E03D9131932150E1F72C2F215030E0E3
:101480002F5F3F4F280F391F3093310220933002D6
:1014900087E192E06C2F0E94E800CC5FCC3019F01D
:1014A0008FEF80930101C093000184E199B19471A1
:1014B00031F48150D9F71092330210922D02DF914E
:1014C000CF910895E9E6F0E0808182608083E89A18
:1014D0008BE4809322028AE58093210208950E9482
:1014E0004E090895FC0184E192E0909331028093CB
:1014F000300280818076803291F48181813089F060
:10150000823041F482E091E0909331028093300286
:1015100081E008958A3039F483818093020180E06C
:10152000089582E0089580E008950F931F93CF936C
:10153000DF93CDB7DEB72E970FB6F894DEBF0FBEA0
:10154000CDBF8C0185E891E0F8019183808373839E
:10155000628352985A9854985C98549A84E12FE583
:101560003AEE40E0215030404040E1F700C000003A
:101570008150A9F754980E94620AF80182819381F0
:10158000BE016F5F7F4F0E940F05CE01019640E0C4
:1015900050E060E070E025E030E00E94790485E0F2
:1015A00090E09C878B871F82188619861A861E8773
:1015B0000D87F80182819381BE016F5F7F4F0E948A
:1015C00022052E960FB6F894DEBF0FBECDBFDF9179
:1015D000CF911F910F9108954093140260931502CB
:1015E0008091210284FFFCCF84E192E062E00E94BE
:1015F0002C0908958091210284FFFCCF609314028E
:101600001092150284E192E062E00E942C09089594
:1016100060E00E94FA0A0895EE0FFF1F0590F49112
:10162000E02D09946817790768F4FB01DC01E40FE9
:10163000F51FA40FB51F02C002900E9241505040FA
:10164000D8F708950C94240BFB01DC0102C0019033
:0E1650000D9241505040D8F70895F894FFCF06
:10165E005AFF0100000000460200000000040200D4
:10166E000000000402000000000A096F08FCFF00E1
:10167E00006E081E34202122242A26272A2E2A2AEA
:10168E002A2A2A2A2A2A2A2A2A2A2A2A332A362A97
:10169E0037381F2A2A2A2A2A2A2A2A2A2A2A2A2A8C
:1016AE002A2A2A2A2A2A2A2A2A2A2A2A2A2A2A2A8C
:1016BE00232D2A2A2A2A2A2A2A2A2A2A2A2A2A2A80
:1016CE002A2A2A2A2A2A2A2A2A2A2A2A2A2F31305A
:0816DE0035000000006F0A0056
:00000001FF
