:100000000C9486010C94B7010C94B7010C94B701C1
:100010000C94B7010C94B7010C94B7010C94B70180
:100020000C94B7010C94B7010C94B7010C94B70170
:100030000C94B7010C94B7010C94B7010C94B70160
:100040000C94B7010C94B7010C94B7010C94B70150
:100050000C94B7010C9414020C94B7010C94B701E2
:100060000C94B7010C94C0010C94B7010C94EA01F4
:100070000C94B7010C94B7010C94B7010C94B70120
:100080000C94B7010C94B7010C94B7010C94B70110
:100090000C94B7010C94B7010C94B7010C94B70100
:1000A0000C94B7010C94B7010C94B7010C94B701F0
:1000B0000C94B7010C94B7010C94B7010C94B701E0
:1000C0000C94B7010C94B7010C94B7010C94B701D0
:1000D0000C94B7010C94B7010C94B7010C94B701C0
:1000E0000C94B7010D0A5374617274696E672063D2
:1000F0006C6F636B0D0A000D0A546865206375729E
:1001000072656E7420756E69782074696D6573749C
:10011000616D7020697320256C750D0A005365634D
:100120006F6E6473206D757374206265206C6573E7
:1001300073207468616E206F7220657175616C2028
:10014000746F2035390D0A004D696E757465732022
:100150006D757374206265206C65737320746861BB
:100160006E206F7220657175616C20746F20353957
:100170000D0A00486F7572206D75737420626520DA
:100180006C657373207468616E206F722065717581
:10019000616C20746F2032330D0A0020696E636C2D
:1001A00075736976650D0A00446179206D75737405
:1001B000206265206265747765656E203120616E0E
:1001C0006420004D6F6E7468206D757374206265D5
:1001D000206265747765656E203120616E64203120
:1001E0003220696E636C75736976650D0A00596516
:1001F0006172206D757374206265206C6174657224
:10020000207468616E203139373020616E64206C53
:10021000657373207468616E20323130360D0A00C8
:1002200020202020202020202020202020202020CE
:1002300020202020202020202020202020202020BE
:100240003E00506C6561736520656E746572207444
:1002500068652063757272656E742074696D6520BF
:10026000696E2059595959204D4D20444420484821
:10027000204D4D2053533A0D0A00416464696E6766
:10028000206576656E74206661696C65640D0A0090
:100290005468652063757272656E742074696D654B
:1002A00020697320253032753A253032753A253071
:1002B00032752025752D253032752D25303275206B
:1002C0002028256C752E25303375290D0A0080DE17
:1002D000280080C84D0000A7760000349E008012E0
:1002E000C700809FEE00007E1701805C400180E91E
:1002F000670100C890010055B8018033E1011F1C5F
:100300001F1E1F1E1F1E1E1F1E1F360411241FBE70
:10031000CFEFD1E2DEBFCDBF12E0A0E0B2E0E8E176
:10032000F3E200E00BBF02C007900D92AC30B107C2
:10033000D9F713E0ACE0B2E001C01D92A536B107D9
:10034000E1F713E000E0CCE0D3E040E008C0229702
:100350004109FE014BBF4F930E94260E4F91CA30B8
:10036000D1074007A1F70E94F2020C948A110C9465
:10037000000085E593E00E948F080895F894FFCF70
:100380001F920F920FB60F920BB60F9211242F935C
:100390003F934F935F936F937F938F939F93AF930D
:1003A000BF93EF93FF9388EB92E00E945C06FF916E
:1003B000EF91BF91AF919F918F917F916F915F91DD
:1003C0004F913F912F910F900BBE0F900FBE0F904A
:1003D0001F9018951F920F920FB60F920BB60F92A7
:1003E00011242F933F934F935F936F937F938F933A
:1003F0009F93AF93BF93EF93FF9388EB92E00E949C
:100400007E06FF91EF91BF91AF919F918F917F9168
:100410006F915F914F913F912F910F900BBE0F9075
:100420000FBE0F901F9018951F920F920FB60F924C
:100430000BB60F9211242F933F934F935F936F93BB
:100440007F938F939F93AF93BF93EF93FF9387ED2A
:1004500092E00E94B20DFF91EF91BF91AF919F91F9
:100460008F917F916F915F914F913F912F910F905D
:100470000BBE0F900FBE0F901F901895DF93CF9378
:10048000CDB7DEB72A970FB6F894DEBF0FBECDBF4B
:100490001E821D82FC0180819181A281B38101961F
:1004A000A11DB11D89839A83AB83BC8384E792E04D
:1004B00098878F831A86198685E593E0BE016F5F62
:1004C0007F4F0E94840A882331F088EB92E06AE72C
:1004D00072E00E949D052A960FB6F894DEBF0FBE0B
:1004E000CDBFCF91DF910895EF92FF920F931F93AD
:1004F000DF93CF93CDB7DEB7CD56D0400FB6F8948B
:10050000DEBF0FBECDBF95E5E92E93E0F92EC70102
:100510008E010F5F1F4FB8010E94A808C701BE01DE
:10052000695F7F4FA8010E94BB088DB79EB74897AF
:100530000FB6F8949EBF0FBE8DBFEDB7FEB73196D4
:1005400084E1E82EF12CEC0EFD1EADB7BEB712967D
:10055000FC92EE9211978AE590E09383828380E982
:1005600092E0958384838B85868317828A85808732
:1005700011868985828713868E859F8595878487D6
:100580008D85868717868C85808B118A89819A81D3
:10059000AB81BC81828B938BA48BB58B8D819E812B
:1005A000978B868B0E94830E8DB79EB748960FB6A9
:1005B000F8949EBF0FBE8DBF88EB92E0B7010E94FA
:1005C000E805C8010E943E02C359DF4F0FB6F894F8
:1005D000DEBF0FBECDBFCF91DF911F910F91FF9076
:1005E000EF9008954F925F926F927F928F929F92B9
:1005F000AF92BF92CF92DF92EF92FF920F931F9331
:10060000DF93CF93CDB7DEB7C857D0400FB6F8947D
:10061000DEBF0FBECDBF789487ED92E063E049EF77
:1006200020E00E94130D87ED92E069EB71E040E05D
:1006300050E020E030E000E010E00E94C30D8E01A9
:100640000C5E1F4F79E1C72ED12CCC0EDD1E6CE164
:10065000A62EB12CAC0EBD1E5FE1852E912C8C0E0A
:100660009D1E42E2642E712C6C0E7D1E35E2432EDF
:10067000512C4C0E5D1E88EB92E062E472E00E9409
:100680009D0588EB92E060E272E00E949D0588EB98
:1006900092E061E00E94CC0786EC92E0B80144E170
:1006A0000E941C0588EB92E060E00E94CC0718864F
:1006B0001F82198A188AC8010E942A0E7C019F870E
:1006C0008E87C6010E942A0E8D87C5010E942A0EC0
:1006D0008C87C4010E942A0E8B87C3010E942A0EB8
:1006E0008A87C2010E942A0E898782EBE81687E07A
:1006F000F80640F488EB92E06EEE71E00E949D05F2
:1007000091E001C090E08D8581508D3038F088EB0C
:1007100092E063EC71E00E949D0591E0EC84EE2094
:1007200069F06E857F858D85E9969FAFE9970E9478
:100730004108E9969FADE9978E15E8F488EB92E0C1
:1007400068EA71E00E949D056E857F858D850E9417
:10075000410890E0B8014AE050E00E945A0E88EB50
:1007600092E0B8010E94E80588EB92E06BE971E045
:100770000E949D0591E08B85883138F088EB92E0EE
:1007800063E771E00E949D0591E08A858C3338F023
:1007900088EB92E068E471E00E949D0591E0898514
:1007A0008C3338F088EB92E06DE171E00E949D059A
:1007B00062CF992309F05FCF85E593E08E010F5F4B
:1007C0001F4FB801AE01495F5F4F0E94BF0985E529
:1007D00093E0B8010E947D0885E593E0B8010E948E
:1007E000A808ADB7BEB71A970FB6F894BEBF0FBE34
:1007F000ADBFEDB7FEB7319628E2E22EF12CEC0E3C
:10080000FD1E1296FC92EE92119780E590E0938384
:10081000828387EF90E09583848389819A81AB817D
:10082000BC8186839783A087B1870E94830E8DB792
:100830009EB70A960FB6F8949EBF0FBE8DBF88EB89
:1008400092E0B7010E94E80588EB92E064EE70E068
:100850000E949D0587ED92E00E94400DC8010E9414
:100860003E0285E593E00E94100BFBCF8F92AF9282
:10087000BF92CF92DF92EF92FF920F931F93CF938D
:10088000DF93CDE5D2E0CE016CE072E041E50E945D
:10089000AB0B03EB12E0C80162E672E041E50E9497
:1008A000AB0B8DB79EB708970FB6F8949EBF0FBEDF
:1008B0008DBFEDB7FEB7319687E0ADB7BEB71196E5
:1008C0008C9386E0818385E0828381E0838380E06E
:1008D00092ECA1E0B0E084839583A683B78388EB94
:1008E00092E0BE01A80124EC30E000EC10E0A1ECA5
:1008F000EA2EF12CF6ECCF2ED12CE4E0AE2EB3E0B4
:100900008B2E0E947D078DB79EB708960FB6F89480
:100910009EBF0FBE8DBFC7EDD2E0CE0160E044E4C4
:1009200050E025E430E007E410E0A8E4EA2EF12CE2
:10093000F6E4CF2ED12CEEE6AE2EB12C8824839493
:100940000E94970C85E593E0BE0141EF52E02AE05A
:1009500008E512E00E945308DF91CF911F910F919B
:10096000FF90EF90DF90CF90BF90AF908F90089561
:10097000FC01718360830895BF92CF92DF92EF9262
:10098000FF920F931F93CF93DF93EC018B01E42E23
:10099000888199810E94800C6C01888199810E94D4
:1009A0001E0CB82E882309F58DE0C816D104E9F095
:1009B000EAE0CE16D10481F518C04C2D50E04E155A
:1009C0005F0539F40E0D1F1DF80110822EEF3FEF69
:1009D00028C02D303105B9F02A303105A1F0400F83
:1009E000511FFA012083C39405C0CC24FF2408942E
:1009F000E108F108888199810E94C70B9C01FFEFF3
:100A00008F3F9F07D1F6F801EC0DF11D1082BB203E
:100A100031F02DEF3FEF05C02FEF3FEF02C020E098
:100A200030E0C901DF91CF911F910F91FF90EF90BE
:100A3000DF90CF90BF900895FF920F931F93CF93B5
:100A4000DF93EC018B01F42ECE01B8014F2D0E94F3
:100A5000BC049C018FEF2F3F3807B1F3C901DF9130
:100A6000CF911F910F91FF900895FC0184E092E0D7
:100A70009183808373876287138212821582148226
:100A800017821682108611860895CF93DF93EC01AA
:100A9000EE81FF81309719F08A819B810995BE0113
:100AA0006E5F7F4F8A859B8548E00E94F00B88230C
:100AB00021F01D861C8680E005C08A819B819D8770
:100AC0008C8781E0DF91CF910895CF93DF93EC0184
:100AD000EC85FD85309739F08885882311F02491C5
:100AE00003C0208101C020E08985882319F02223DA
:100AF00051F01BC08A819B814C815D81840F951FC1
:100B0000E817F90791F4CE010E944505882301F703
:100B10001D861C861B821A821D821C821F821E82D9
:100B2000188619862FEF3FEF04C03196FD87EC87BA
:100B300030E0C901DF91CF910895EF92FF920F93BA
:100B40001F93DF93CF93CDB7DEB728970FB6F894F6
:100B5000DEBF0FBECDBF8C017B01DC011A968D91EB
:100B60009C911B9768E00E94310C882309F5FA825A
:100B7000E9821C821B821E821D8281E08F8388870E
:100B8000F80182859385BE016F5F7F4F48E00E9428
:100B9000510CD8011C968D919C911D97009751F492
:100BA000ED91FC910190F081E02DC801099502C002
:100BB00081E001C080E028960FB6F894DEBF0FBE3A
:100BC000CDBFCF91DF911F910F91FF90EF900895CE
:100BD000EF92FF920F931F93DF93CF93CDB7DEB7C2
:100BE00028970FB6F894DEBF0FBECDBF8C017B01F6
:100BF000DC011A968D919C911B9768E00E94310C44
:100C0000882309F5FA82E9821C821B821E821D82DA
:100C10001F8281E08887F80182859385BE016F5F1E
:100C20007F4F48E00E94510CD8011C968D919C91F9
:100C30001D97009751F4ED91FC910190F081E02D0A
:100C4000C801099502C081E001C080E028960FB676
:100C5000F894DEBF0FBECDBFCF91DF911F910F91F2
:100C6000FF90EF900895CF93DF93EC010E9465050C
:100C70002FEF8F3F9207E9F0EC89FD89408121E059
:100C800030E00B8C02C0220F331F0A94E2F7422B94
:100C90004083EA89FB894C8D208130E0042E02C01C
:100CA000359527950A94E2F720FFF6CFEE89FF8964
:100CB0008083DF91CF9108951F93CF93DF93EC0151
:100CC000EE89FF8910818E859F85612F0E94B20B6E
:100CD0008E8D882379F0EA89FB89808190E00C8CE5
:100CE00002C0959587950A94E2F780FF03C0EE89CC
:100CF000FF891083DF91CF911F910895CF93DF93E8
:100D0000EC010E9465052FEF8F3F920781F41D864D
:100D10001C86EC89FD89208181E090E00B8C02C06B
:100D2000880F991F0A94E2F78095822302C0EE890A
:100D3000FF898083DF91CF9108958F929F92AF9228
:100D4000BF92CF92DF92EF92FF920F931F93CF93B8
:100D5000DF93EC017A018B01413482E458078FE084
:100D6000680780E0780708F075C060E874E88EE1F5
:100D700090E0A80197010E94040E49015A0160E029
:100D800079E08DE390E0A80197010E94040E2150C4
:100D900030404040504056954795379527952F5FF6
:100DA0003F4F4F4F5F4FF3E0220F331F441F551F3C
:100DB000FA95D1F760E074E284EF90E00E94040EAF
:100DC000CA01B9012FEF30E040E050E00E94D10DA0
:100DD000A80197010E94040EEFEFCE2ED12CC21A6B
:100DE000D30AD7FE04C0D094C194D108D394A501EE
:100DF00094012150304040405040569547953795DA
:100E000027952F5F3F4F4F4F5F4F64E0220F331FF7
:100E1000441F551F6A95D1F760E074E284EF90E0BB
:100E20000E94040ECA01B9012FEF30E040E050E00B
:100E30000E94D10DA80197010E94040E8FEF90E04F
:100E4000821B930B97FF03C0909581959F4FC81607
:100E5000D906ECF4EA89FB8981E090E00D8C02C0B0
:100E6000880F991F0A94E2F78083C888D98860E0C8
:100E700079E08DE390E0A80197010E94040E2150D3
:100E8000304036952795F601318320830CC0EA89DE
:100E9000FB891082E889F989089481089108969461
:100EA000879491828082EC89FD89608181E090E065
:100EB000AC01088C02C0440F551F0A94E2F79C0154
:100EC000098C02C0220F331F0A94E2F7242B262B31
:100ED0000A8C02C0880F991F0A94E2F7282B2083FE
:100EE000DF91CF911F910F91FF90EF90DF90CF9006
:100EF000BF90AF909F908F9008952F923F924F9206
:100F00005F926F927F928F92AF92CF92DF92EF9229
:100F1000FF920F931F93DF93CF93CDB7DEB73C01C2
:100F20001B01BA0129010E943505C3010E96B101CA
:100F30000E94B8048AE092E0F30191838083168EC8
:100F4000518A408A138B028BF58AE48AD78AC68A33
:100F5000A08E818E8B89828F8C89838F8D89848FDF
:100F60008E89858F15861486C3014F89588D698DAA
:100F70007A8D0E949D06CF91DF911F910F91FF9076
:100F8000EF90DF90CF90AF908F907F906F905F90B9
:100F90004F903F902F900895FC01668F0895EF9237
:100FA000FF920F931F93FC01DB01E080F18002812F
:100FB00013812D913D914D915C911397E216F306AB
:100FC0000407150780F0E216F3060407150769F415
:100FD00081E04481558114962D913C9115974217DB
:100FE000530720F002C081E001C080E01F910F9103
:100FF000FF90EF900895EF92FF920F931F93FC01E3
:10100000DB01E080F180028113812D913D914D91B2
:101010005C9113972E153F054007510780F0E216AB
:10102000F3060407150769F481E04481558114969D
:101030002D913C9115974217530720F402C081E08F
:1010400001C080E01F910F91FF90EF9008959C01E7
:1010500083709070009739F4C90164E670E00E94D3
:10106000F00D009761F4C90160E971E00E94F00D94
:101070009C0181E02115310519F080E0089581E09F
:1010800008951F93182F823041F4CB010E94270846
:10109000882319F08DE11F910895E12FF0E0E350CE
:1010A000FD4F8491F8CF0F931F93FC0171836083F0
:1010B000148681E0858717870687A42FB52F80E0E7
:1010C00090E0622F70E00FC01D921D921D921C9245
:1010D000139715961C921E92149717961C921E92A7
:1010E000169701961A968617970774F342835383CF
:1010F000258314821F910F910895FC01DB01149642
:101100008D919C911597938782872D913D914D915B
:101110005C91139726833783408751870895FC019C
:101120008285938501969387828723E0883E920784
:1011300070F01386128626813781408551852F5F96
:101140003F4F4F4F5F4F2683378340875187089526
:10115000CF93DF93FC01EB01828593859D838C8384
:1011600086819781A085B18588839983AA83BB8373
:10117000DF91CF9108956F927F928F929F92AF925D
:10118000BF92CF92DF92EF92FF920F931F93CF9374
:10119000DF93EB015A01DC011E962D913C911F97C4
:1011A00079010027F7FC0095102FFA0180819181C9
:1011B000A281B381E80EF91E0A1F1B1F3C872B87F3
:1011C00080E893E3A1EEB1E022EBC22E27E0D22E1D
:1011D00015C0E81AF90A0A0B1B0B0894C11CD11C94
:1011E000C6010E942708882329F080E095E8A2EE36
:1011F000B1E004C080E893E3A1EEB1E08E159F0555
:10120000A007B10730F3D886CF82C6010E94270815
:10121000D82E20E030E0C22EF901EE0FFF1FEE0FB6
:10122000FF1FDD20B9F0E253FD4F213019F080E0BF
:1012300090E002C084E090E08E0F9F1F009719F0AD
:10124000E0E8F1E502C0E0E0F0E085919591A5913C
:10125000B49106C0E253FD4F85919591A591B4914B
:10126000E816F9060A071B0730F0C3942F5F3F4FBB
:101270002033310581F6C801B70120E831E541E0AE
:1012800050E00E94040E3A872987CC2081F0EC2D93
:10129000F0E0EE0FFF1FEE0FFF1FE653FD4F8591AD
:1012A0009591A591B491E81AF90A0A0B1B0BDD2060
:1012B00059F09C2D923040F080E89EEAAEEFBFEFEF
:1012C000E80EF91E0A1F1B1FC394CE82C801B70186
:1012D00020E831E541E050E00E94040EC22E622F6A
:1012E000732FCA0120E831E541E050E00E94D10DA2
:1012F000E61AF70A080B190BC394CD82C801B7018F
:1013000020E13EE040E050E00E94040E2C83B90151
:10131000CA0120E13EE040E050E00E94D10DE61A13
:10132000F70A080B190BC801B7012CE330E040E0C5
:1013300050E00E94040E2B83B901CA012CE330E077
:1013400040E050E00E94D10DE61AF70A080B190B95
:10135000EA82D50114968D919C9115979983888383
:10136000DF91CF911F910F91FF90EF90DF90CF9081
:10137000BF90AF909F908F907F906F9008956F92E5
:101380007F928F929F92AF92BF92CF92DF92EF9215
:10139000FF920F931F93CF93DF933C014B01EA0120
:1013A00088819981DB0115969C938E931497EA802E
:1013B0006B8170E080E090E02CE330E040E050E0B2
:1013C0000E94D10D5B016C016C8170E080E090E0C7
:1013D00020E13EE040E050E00E94D10DA60EB71E95
:1013E000C81ED91EAE0CB11CC11CD11C69857A85E2
:1013F0006115710579F080E090E020E831E541E089
:1014000050E00E94D10D7B018C01EA0CFB1C0C1DED
:101410001D1D3BC06D8170E061507040882777FDD5
:101420008095982F20E831E541E050E00E94D10DF1
:101430007B018C01EA0CFB1C0C1D1D1DEE81E130B3
:1014400021F1E23029F480E898ECADE4B0E019C075
:10145000F0E0EE0FFF1FEE0FFF1FEA53FD4F8591E7
:101460009591A591B491E80EF91E0A1F1B1F8F815B
:1014700098850E942708882341F080E891E5A1E043
:10148000B0E0E80EF91E0A1F1B1F0F80D885C02D83
:1014900015C080E893E3A1EEB1E0E80EF91E0A1F43
:1014A0001B1FCE010E942708882341F080E891E5A8
:1014B000A1E0B0E0E80EF91E0A1F1B1F219797E07C
:1014C000C23BD90730F7D3011E968D919C911F978F
:1014D000AA2797FDA095BA2FE81AF90A0A0B1B0B49
:1014E000F401E082F18202831383DF91CF911F9197
:1014F0000F91FF90EF90DF90CF90BF90AF909F90B3
:101500008F907F906F900895CF92DF92EF92FF922D
:101510000F931F93CF93DF93EC01D62EC72E9C81A0
:101520008D81981709F472C0EE24FF2400E010E0CA
:1015300010C06A817B816E0D7F1D8D2D9C2D0E94B8
:10154000CF072AE030E0E20EF31E882339F40F5F64
:101550001F4F8C8190E0081719075CF32C8130E055
:101560008A819B8102171307E4F57801EE0CFF1CBA
:101570009801F3E0220F331FFA95E1F7E20EF31E14
:101580002C81A8014F5F5F4FBA01660F771F33E0D0
:10159000440F551F3A95E1F7640F751FFC01EE0DDE
:1015A000FF1D30E0201B310BA901440F551FA3E0A4
:1015B000220F331FAA95E1F7420F531F860F971F83
:1015C000BF010E94480EEA81FB81EE0DFF1D9601CE
:1015D000832F9C2DDC018AE00D9001928150E1F770
:1015E00010C0EC812AE0E29FF0011124E80FF91FFE
:1015F0009601832F9C2DDC018AE00D900192815091
:10160000E1F78C818F5F8C8380E001C081E0DF9106
:10161000CF911F910F91FF90EF90DF90CF900895A1
:101620008F929F92AF92BF92CF92DF92EF92FF92F2
:101630000F931F93DF93CF9300D000D000D0CDB78E
:10164000DEB78C01DC011A968D919C911B979E83CD
:101650008D8316968D919D910D90BC91A02D8983BF
:101660009A83AB83BC83AA24BB24EE24FF244E01BF
:101670000894811C911CF801848190E0E816F90619
:1016800034F5C280D380CA0CDB1CC401B6010E94B1
:10169000FB072AE030E0A20EB31E8823C1F0D6017A
:1016A0001696ED91FC911797C60109950894E11CD7
:1016B000F11CF801828593859E838D8386819781B5
:1016C000A085B18589839A83AB83BC83D4CFE11491
:1016D000F10471F1D80114968C91149790E0E816FA
:1016E000F90614F512968D919C91139714962C91EE
:1016F000B701660F771FA701F3E0440F551FFA9556
:10170000E1F7640F751F680F791F30E02E193F094C
:10171000A901440F551FB3E0220F331FBA95E1F71B
:10172000420F531F0E94480EF80184818E19848352
:1017300026960FB6F894DEBF0FBECDBFCF91DF91D6
:101740001F910F91FF90EF90DF90CF90BF90AF90DF
:101750009F908F900895FC01718360834283138270
:1017600014820895FC019381892F8F5F2281821753
:1017700009F480E02481821741F0A081B181A90F92
:10178000B11D6C93838380E0089581E00895FC018E
:1017900084819381981769F0A081B181A80FB11D50
:1017A0002C918F5F9281891709F480E0848330E067
:1017B00002C02FEF3FEFC9010895FC01438150E0C3
:1017C000248130E0CA01821B930B97FF08C08281FD
:1017D000BA01680F711DCB010196821B930B08950E
:1017E000CF92DF92EF92FF920F931F93DF93CF93ED
:1017F0000F92CDB7DEB76C01F62EE42E79830E94EE
:10180000DD0B79818E1578F00F2D172F06C0C601DC
:101810000E94C70BF80181938F01802F8F198E15BD
:10182000B0F380E001C081E00F90CF91DF911F9174
:101830000F91FF90EF90DF90CF900895CF93DF93BB
:10184000EC010E94DD0B482F50E02A8130E021504E
:10185000304081E04217530709F080E0DF91CF91DB
:1018600008950F931F93DF93CF930F92CDB7DEB7F9
:101870008C0169830E94DD0B482F50E0F801228122
:1018800030E0215030406981261B310981E0241766
:1018900035070CF080E00F90CF91DF911F910F91F1
:1018A0000895CF92DF92EF92FF920F931F93DF93F1
:1018B000CF930F92CDB7DEB76C01F62EE42E642FD6
:1018C00079830E94310C7981882379F40F2D172FA9
:1018D00006C0F80161918F01C6010E94B20B802FF2
:1018E0008F198E15B0F380E001C081E00F90CF9189
:1018F000DF911F910F91FF90EF90DF90CF900895AF
:10190000FC0123818481281771F0222309F42281AC
:1019100030E0215030400190F081E02DE20FF31FC4
:10192000208130E002C02FEF3FEFC90108958F9270
:10193000AF92BF92CF92DF92EF92FF920F931F93DD
:10194000DF93CF93CDB7DEB7FC0151834083338360
:10195000228315830483F782E682D186C086B3860C
:10196000A286848681E08687678788E0808B1586DB
:10197000118A158A148A118E108E138A128A178A78
:10198000168ACF91DF911F910F91FF90EF90DF901A
:10199000CF90BF90AF908F900895DC011296ED919B
:1019A000FC9113978081887F682B60830895FC01E8
:1019B0008685823079F0823038F08430E1F08430EE
:1019C00078F0853079F523C0A081B1818C918C7F2E
:1019D00082600AC0A081B1818C918C7F81600FC030
:1019E000A081B1818C9183608C930280F381E02D82
:1019F0008081877F0AC0A081B1818C9183608C93A4
:101A00000280F381E02D8081886080830895A08129
:101A1000B1818C9183608C930280F381E02D808171
:101A2000877F80830895EF92FF921F93DF93CF9378
:101A300000D0CDB7DEB77C011FB7F894DC011D964E
:101A40006C932A8349830E94CD0CD7011896ED919F
:101A5000FC91199710821496ED91FC91159749818C
:101A600040831696ED91FC9117972A8120831FBF22
:101A70000F900F90CF91DF911F91FF90EF900895FD
:101A80001F93CF93DF93EC011FB7F894E885F98596
:101A900010826D850E94CD0CCE010E94D70C8A89E0
:101AA0009B89009769F0EA85FB85208181E090E0C1
:101AB0000C8402C0880F991F0A94E2F7282B208318
:101AC000EE81FF8180818823D9F08E899F890097DC
:101AD000B9F0EA85FB8540812C8530E02F5F3F4FD0
:101AE00081E090E002C0880F991F2A95E2F7482B09
:101AF000408381E0898B1FBFDF91CF911F910895B3
:101B0000198AF9CF1F93CF93DF93EC011FB7F89495
:101B100060E00E94CD0CEA85FB85408121E030E049
:101B2000C9010C8402C0880F991F0A94E2F78095BE
:101B3000842380838989882381F0EA85FB8540811D
:101B40008C8590E00196B90102C0660F771F8A95D7
:101B5000E2F7CB018095842380831FBFDF91CF9173
:101B60001F910895CF93DF93EC018E85882319F49C
:101B7000CE010E94820DEA89FB898C899D89099595
:101B8000DF91CF9108950F931F93FC01738B628BAC
:101B9000558B448B378B268B118F008F1F910F91A4
:101BA0000895629FD001739FF001829FE00DF11DA7
:101BB000649FE00DF11D929FF00D839FF00D749FC7
:101BC000F00D659FF00D9927729FB00DE11DF91F73
:101BD000639FB00DE11DF91FBD01CF0111240895D0
:101BE000AA1BBB1B51E107C0AA1FBB1FA617B70743
:101BF00010F0A61BB70B881F991F5A95A9F780955F
:101C00009095BC01CD010895A1E21A2EAA1BBB1B21
:101C1000FD010DC0AA1FBB1FEE1FFF1FA217B307B8
:101C2000E407F50720F0A21BB30BE40BF50B661FCE
:101C3000771F881F991F1A9469F760957095809592
:101C400090959B01AC01BD01CF0108950790F691DD
:101C5000E02D0994FC0188279927E89421912032EE
:101C6000E9F3293010F02E30C8F32B3241F02D3239
:101C700039F4689404C00E947B0E820F911D21915B
:101C800020532A30C0F31EF4909581959F4F0895FC
:101C90006817790768F4FB01DC01E40FF51FA40F56
:101CA000B51F02C002900E9241505040D8F70895DF
:101CB0000C94DC10FB019F01E8944230C4F04532E3
:101CC000B4F44A3029F497FB1EF4909581959F4F08
:101CD000642F77270E94F00D805D8A330CF0895DB8
:101CE0008193CB010097A1F716F45DE25193108226
:101CF000C9010C94F0107AE0979F902D879F802D5A
:101D0000910D112408950F931F93DF93CF93CDB7B7
:101D1000DEB72E970FB6F894DEBF0FBECDBF0D898C
:101D20001E898F89988D2EE02C831A83098397FF53
:101D300002C080E090E801979E838D839E01255E1E
:101D40003F4FCE010196698D7A8DA9010E94C10E87
:101D50004D815E8157FD0AC02F8138854217530798
:101D60000CF49A01020F131FF80110822E960FB681
:101D7000F894DEBF0FBECDBFCF91DF911F910F91C1
:101D800008952F923F924F925F926F927F928F921F
:101D90009F92AF92BF92CF92DF92EF92FF920F93FA
:101DA0001F93DF93CF93CDB7DEB72C970FB6F89480
:101DB000DEBF0FBECDBF6C011B018A01FC01178283
:101DC0001682838181FFD1C12E010894411C511CD0
:101DD000F6019381F10193FD859193FF81911F019C
:101DE000882309F4BEC1853239F493FD859193FFB0
:101DF00081911F01853229F490E0B6010E94001103
:101E0000E7CFEE24FF2420E02032B0F48B3269F0DB
:101E10008C3228F4803251F0833271F40BC08D3251
:101E200039F0803349F421602CC02260246029C03D
:101E3000286027C0206125C027FD2CC0382F3053D3
:101E40003A3098F426FF08C08E2D880FE82EEE0C4D
:101E5000EE0CE80EE30E15C08F2D880FF82EFF0C48
:101E6000FF0CF80EF30E20620CC08E3221F426FD1A
:101E700078C1206406C08C3611F4206802C0883610
:101E800049F4F10193FD859193FF81911F0188230E
:101E900009F0BACF982F9554933018F090529330A0
:101EA00028F40C5F1F4FFFE3F9830DC0833631F038
:101EB000833771F0833509F060C022C0F80180815A
:101EC00089830E5F1F4F420171E0A72EB12C16C00F
:101ED00062E0662E712C600E711EF8018080918088
:101EE00026FF03C06E2D70E002C06FEF7FEFC401CC
:101EF0002C870E94E5105C0183012C852F7717C089
:101F000052E0652E712C600E711EF8018080918068
:101F100026FF03C06E2D70E002C06FEF7FEFC4019B
:101F20002C870E94D1105C012C852068830123FD41
:101F300020C008C080E290E0B6012C870E9400110A
:101F4000FA942C858F2D90E0A816B90698F311C04D
:101F5000F40127FD859127FF81914F0190E0B601A3
:101F60002C870E9400112C85F110FA940894A10886
:101F7000B108A114B10461F7F1C0843611F08936BB
:101F800049F527FF08C0F801608171818281938142
:101F90000C5F1F4F09C0F80160817181882777FDB0
:101FA0008095982F0E5F1F4F4FE6B42EB22297FFF9
:101FB00009C090958095709561957F4F8F4F9F4F89
:101FC000F0E8BF2AA2012AE030E00E942C11782E0E
:101FD000741845C0853731F43FEEB32EB2222AE0A3
:101FE00030E025C099EFB92EB2228F36C1F080378C
:101FF00020F4883509F0B5C00DC0803721F088374E
:1020000009F0AFC002C020E1B22AB4FE0BC084E0E8
:10201000B82A08C0B4FE09C0E6E0BE2A06C028E01F
:1020200030E005C020E130E002C020E132E0B7FE40
:1020300008C0F80160817181828193810C5F1F4F1C
:1020400007C0F8016081718180E090E00E5F1F4F52
:10205000A2010E942C11782E7418FFE7BF22B6FE51
:102060000BC02EEFB2227E1438F4B4FE07C0B2FCCF
:1020700005C08FEEB82202C0A72C01C0AE2C8B2D5C
:1020800090E0B4FE0DC0FE01E70DF11D208120336C
:1020900019F4E9EEBE2209C0A394B2FE06C004C042
:1020A00086789070009709F0A3948B2C9924B3FC48
:1020B00014C0B0FE0FC0AF1428F4E72CEF0CEA18E0
:1020C000AF2C08C0E72C06C080E290E0B6010E9469
:1020D0000011A394AF14C0F304C0AF1410F4FA18A5
:1020E00001C0FF2484FE0FC080E390E0B6010E948F
:1020F000001182FE1FC081FE03C088E590E010C081
:1021000088E790E00DC0C40186789070009791F048
:1021100081FC02C080E201C08BE2B7FC8DE290E05E
:10212000B6010E94001106C080E390E0B6010E9453
:102130000011EA947E14C0F37A94F201E70DF11DC8
:10214000808190E0B6010E9400117720A9F706C0B7
:1021500080E290E0B6010E940011FA94FF20C1F7DE
:1021600037CEF6012681378102C02FEF3FEFC9013C
:102170002C960FB6F894DEBF0FBECDBFCF91DF9186
:102180001F910F91FF90EF90DF90CF90BF90AF9095
:102190009F908F907F906F905F904F903F902F9087
:1021A0000895FC010590615070400110D8F78095AA
:1021B00090958E0F9F1F0895FB01DC0102C00190D6
:1021C0000D9241505040D8F70895FC016150704085
:1021D00001900110D8F7809590958E0F9F1F08955C
:1021E000DC01FC01672F71917723E1F7329704C07E
:1021F0007C916D9370836291AE17BF07C8F3089509
:102200000F931F93CF93DF938C01EB018B8181FFA1
:102210001BC082FF0DC02E813F818C819D812817BC
:10222000390764F4E881F9810193F983E88306C0F2
:10223000E885F985802F0995009731F48E819F817B
:1022400001969F838E8302C00FEF1FEFC801DF91BD
:10225000CF911F910F910895FA01AA27283051F1CB
:10226000203181F1E8946F936E7F6E5F7F4F8F4FC7
:102270009F4FAF4FB1E03ED0B4E03CD0670F781F26
:10228000891F9A1FA11D680F791F8A1F911DA11D0B
:102290006A0F711D811D911DA11D20D009F4689444
:1022A0003F912AE0269F11243019305D3193DEF6EC
:1022B000CF010895462F4770405D4193B3E00FD0A2
:1022C000C9F7F6CF462F4F70405D4A3318F0495D8D
:1022D00031FD4052419302D0A9F7EACFB4E0A69570
:1022E0009795879577956795BA95C9F70097610592
:1022F000710508959B01AC010A2E069457954795E8
:1023000037952795BA95C9F7620F731F841F951FDC
:08231000A01D0895F894FFCF11
:0C23180000000000BE01000000003306C1
:00000001FF
