:100000000C9472000C949A000C949A000C949A0030
:100010000C949A000C949A000C949A000C94A202EE
:100020000C94C8020C949A000C949A000C947C02D4
:100030000C949A000C949A000C949A000C949A00D8
:100040000C949A000C949A000C9414030C949A004B
:100050000C94EE020C949A000C949A000C949A0062
:100060000C949A000C949A00427573792077726907
:100070007465732C2070726F676D656D2073747278
:10008000696E670D0A004173796E63207772697437
:1000900065732C2070726F676D656D207374726963
:1000A0006E670D0A00427573792077726974657303
:1000B0002C2070726F676D656D2062756666657263
:1000C0000D0A004173796E63207772697465732C31
:1000D0002070726F676D656D206275666665720D62
:1000E0000A00B40011241FBECFEFD4E0DEBFCDBFA5
:1000F00011E0A0E0B1E0E4E1F5E202C005900D926C
:10010000A23CB107D9F712E0A2ECB1E001C01D9208
:10011000A438B107E1F710E0C4EED0E004C02297A4
:10012000FE010E949F0FC23ED107C9F70E945A01EB
:100130000C9488120C940000F894FFCF80918102F7
:10014000882371F480918002882321F02D981092E9
:10015000800204C02D9A81E08093800285E001C076
:1001600081508093810208956F927F928F929F9227
:10017000AF92BF92CF92DF92EF92FF920F931F93B5
:1001800003E112E0C80162EC71E041E50E948E07D4
:100190008DB79EB707970FB6F8949EBF0FBE8DBF61
:1001A000EDB7FEB7319686E0ADB7BEB711968C932A
:1001B00085E0818381E0828380E092ECA1E0B0E081
:1001C00083839483A583B68388E192E0B80144ECED
:1001D00050E020EC30E001EC10E0B6ECEB2EF12C1E
:1001E000A4E0CA2EF3E0AF2EE7E08E2E0E94750445
:1001F000EDB7FEB736960FB6F894FEBF0FBEEDBF53
:1002000012E0B12EB1828EE292E060EB70E041EB41
:1002100050E023EB30E004EB10E0B2EBEB2EF12CDE
:10022000A0E7CA2ED12CF2E0AF2EE4E08E2E0E9481
:10023000480D00D00F92EDB7FEB73196B7E46B2EA4
:10024000B2E07B2EADB7BEB71196BC9284E081833D
:10025000128288E08383C30160E870E041E850E0E7
:1002600020E030E008E810E0AAE8EA2EF12CCC24E7
:10027000DD24F4E8AF2EB12CEFE68E2E912C0E94F7
:10028000920C0F900F900F900F908AE792E0B301BD
:1002900040E752E021E00E9415081F910F91FF9066
:1002A000EF90DF90CF90BF90AF909F908F907F9016
:1002B0006F900895AF92BF92CF92DF92EF92FF922C
:1002C0000F931F93DF93CF93CDB7DEB7C155D040C7
:1002D0000FB6F894DEBF0FBECDBF88E192E060E0BC
:1002E00071E00E946005259A8EE292E06EE970E06E
:1002F00040E050E02CE632E000E010E00E94240FE5
:100300008EE292E040E355E760E070E000E21EE438
:1003100020E030E00E94F90D8EE292E00E949C0EF7
:1003200087E492E066E672E040E050E020E030E0F2
:1003300000E010E0EE24FF24CC24DD240E946B0CAE
:100340008AE792E060E044E250E025E230E003E238
:1003500010E074E0E72E0E941C098AE792E00E94F8
:10036000780A8E010F5F1F4F21E5A22EB12C9EE06F
:10037000C92E91E0D92E80E2E82E81E0F82E8DB7CB
:100380009EB708970FB6F8949EBF0FBE8DBFEDB70E
:10039000FEB73196ADB7BEB712961C930E93119768
:1003A000B382A282D582C482F782E6820E94A30F22
:1003B0008DB79EB708960FB6F8949EBF0FBE8DBF3F
:1003C00088E192E0B8010E94600588E192E068E669
:1003D00070E00E94320588E192E00E9415058823B2
:1003E000D1F388E192E06EE271E00E943B0688E181
:1003F00092E00E9415058823D1F388E192E066E837
:1004000070E00E94FB0588E192E00E9415058823B8
:10041000D1F388E192E06CE471E04CE150E00E949D
:10042000B70588E192E065EA70E04DE150E00E9496
:10043000840588E192E00E94EA058823D1F388E1EF
:1004400092E069E671E04DE150E00E94C30688E168
:1004500092E00E9415058823D1F388E192E063ECD5
:1004600070E04EE150E00E947C0688E192E00E943C
:1004700015058823D1F388E192E067E871E00E94D6
:10048000600588E192E061E00E94120588E192E057
:10049000B80141E50E941A078F5F9F4FB9F388E1C9
:1004A00092E060E00E94120588E192E060EB71E06A
:1004B0000E94600588E192E0B8010E94600588E131
:1004C00092E06DEB71E00E94600559CFBC018AE7B4
:1004D00092E00E944909089540918202509183025E
:1004E0004C595F4F50938302409382028AE792E017
:1004F00060E00E94CE0808951F920F920FB60F92EF
:1005000011242F933F934F935F936F937F938F9318
:100510009F93AF93BF93EF93FF9387E492E00E9482
:10052000060FFF91EF91BF91AF919F918F917F91B6
:100530006F915F914F913F912F910F900FBE0F9050
:100540001F9018951F920F920FB60F9211242F93A0
:100550003F934F935F936F937F938F939F93AF934B
:10056000BF93EF93FF938EE292E00E94060FFF91FC
:10057000EF91BF91AF919F918F917F916F915F911B
:100580004F913F912F910F900FBE0F901F90189594
:100590001F920F920FB60F9211242F933F934F93F8
:1005A0005F936F937F938F939F93AF93BF93EF93DB
:1005B000FF938EE292E00E94170FFF91EF91BF919F
:1005C000AF919F918F917F916F915F914F913F91EB
:1005D0002F910F900FBE0F901F9018951F920F92A2
:1005E0000FB60F9211242F933F934F935F936F9306
:1005F0007F938F939F93AF93BF93EF93FF9388E184
:1006000092E00E943A03FF91EF91BF91AF919F91C9
:100610008F917F916F915F914F913F912F910F90AB
:100620000FBE0F901F9018951F920F920FB60F924A
:1006300011242F933F934F935F936F937F938F93E7
:100640009F93AF93BF93EF93FF9388E192E00E9453
:100650006507FF91EF91BF91AF919F918F917F912E
:100660006F915F914F913F912F910F900FBE0F901F
:100670001F901895DC015096ED91FC9151973097A1
:1006800069F154968C915497882311F0249101C0FC
:10069000208152968D919C9153973FEF8F3F930706
:1006A00019F4222369F407C0019753969C938E9303
:1006B0005297019629F451961C921E9250970895D4
:1006C0001896ED91FC911997208350968D919C91ED
:1006D0005197019651969C938E93509708958F92BF
:1006E0009F92AF92BF92CF92DF92EF92FF920F93C1
:1006F0001F93CF93DF934C015A016B01413482E485
:1007000058078FE0680780E0780708F073C060E85A
:1007100074E88EE190E0A60195010E94670F7901CF
:100720008A010894E108F108010911091695079555
:10073000F794E794A80197012F5F3F4F4F4F5F4F0A
:1007400074E0220F331F441F551F7A95D1F760E0E4
:1007500074E284EF90E00E94670FCA01B9012FEFA5
:1007600030E040E050E00E94350FA60195010E9464
:10077000670FCFEFD0E0C21BD30BD7FF03C0D095DC
:10078000C195DF4F60E079E08DE390E0A60195012F
:100790000E94670F21503040404050405695479589
:1007A000379527952F5F3F4F4F4F5F4F93E0220FB5
:1007B000331F441F551F9A95D1F760E074E284EF10
:1007C00090E00E94670FCA01B9012FEF30E040E0CE
:1007D00050E00E94350FA60195010E94670F8FEF30
:1007E00090E0821B930B97FF03C0909581959F4FDC
:1007F0008C1700F5D4011496ED91FC91159781E0CA
:1008000090E01F960C9002C0880F991F0A94E2F79F
:10081000808360E079E08DE390E0A60195010E947D
:10082000670F2150304040405040569547953795CE
:10083000279507C0D4011496ED91FC91159710826D
:100840009701D4011296ED91FC9113973183208387
:100850001696ED91FC911797208141E050E0CA0176
:100860001A960C901A9702C0880F991F0A94E2F703
:10087000282B20831696ED91FC9117972081CA01B1
:100880001B960C901B9702C0880F991F0A94E2F7E1
:10089000282B20831696ED91FC9117972081CA0191
:1008A0001C960C901C9702C0880F991F0A94E2F7BF
:1008B000282B20831696ED91FC91179780811D9629
:1008C0000C9002C0440F551F0A94E2F7842B8083DA
:1008D000DF91CF911F910F91FF90EF90DF90CF901C
:1008E000BF90AF909F908F9008958F92AF92CF92CC
:1008F000EF92FF920F931F93DF93CF93CDB7DEB7A5
:10090000FC0171836083158A53834283358324837A
:1009100017830683F186E086C286A38684868C854B
:1009200085878D8586878E858787118A108ACF0176
:100930004F85588969897A890E946F03CF91DF9129
:100940001F910F91FF90EF90CF90AF908F900895EF
:100950008F92AF92CF92EF92FF920F931F93DF93FC
:10096000CF93CDB7DEB7FC0171836083158A5383C3
:1009700042833583248317830683F186E086C2860B
:10098000A38684868C8585878D8586878E858787D7
:10099000118A108ACF014F85588969897A890E9406
:1009A0006F03CF91DF911F910F91FF90EF90CF9048
:1009B000AF908F900895FC01A681B7814C9121E002
:1009C00030E0C901028402C0880F991F0A94E2F73F
:1009D000809584238C93A681B7814C91C9010384AF
:1009E00002C0880F991F0A94E2F7809584238C93A4
:1009F000A681B7814C91C901048402C0880F991F58
:100A00000A94E2F7809584238C93A681B7818C9118
:100A1000058402C0220F331F0A94E2F72095282391
:100A20002C930895FC01658B089520E0FC018089DA
:100A30009189892B09F421E0822F0895FC01A4817A
:100A4000B58126858C9190E0022E02C09595879500
:100A50000A94E2F780FFF6CF0084F185E02D6083F1
:100A600080E00895DC01FB0150968D919C91519797
:100A7000892B21F59B012F5F3F4F649113C080812B
:100A800090E0042E02C0959587950A94E2F780FFC6
:100A9000F6CF1896ED91FC9119976083F9012F5FBD
:100AA0003F4F6491662311F480E008951496ED9110
:100AB000FC9115971E964C911E97E1CF81E0089509
:100AC000CF93DF93EC0188899989892BC9F4DB01E5
:100AD0000EC0808190E0022E02C0959587950A9401
:100AE000E2F780FFF6CFE885F985308311963C91D7
:100AF000332311F480E005C0EC81FD812E85E9CF20
:100B000081E0DF91CF910895CF93DF93DC01EB017A
:100B1000BA0150968D919C915197892B11F081E0EB
:100B200023C020E030E01CC0FE01E20FF31F54910F
:100B30001496ED91FC9115971E964C911E9780810D
:100B400090E0042E02C0959587950A94E2F780FF05
:100B5000F6CF1896ED91FC91199750832F5F3F4F78
:100B60002617370708F380E0DF91CF910895CF93E0
:100B7000DF93DC01EB01BA0150968D919C91519766
:100B8000892B11F081E023C020E030E01CC0FE0181
:100B9000E20FF31F50811496ED91FC9115971E966C
:100BA0004C911E97808190E0042E02C09595879508
:100BB0000A94E2F780FFF6CF1896ED91FC91199711
:100BC00050832F5F3F4F2617370708F380E0DF91F0
:100BD000CF910895DC011496ED91FC9115978081D9
:100BE00090E01E960C9002C0959587950A94E2F7C6
:100BF000809581700895DC019B0150968D919C91A8
:100C00005197892B11F081E008958FEF9FEF539654
:100C10009C938E93529781E054968C935497FB014A
:100C20004491442329F451961C921E9250971BC064
:100C30001496ED91FC911597808190E01E960C9092
:100C40001E9702C0959587950A94E2F780FF0DC024
:100C50002F5F3F4F51963C932E9350971896ED91EE
:100C6000FC911997408380E0089551967C936E9390
:100C7000509780E00895CF93DF93DC01EB0150960D
:100C80008D919C915197892B11F081E032C08FEFAB
:100C90009FEF53969C938E93529754961C92549721
:100CA0008881882329F451961C921E92509721C066
:100CB0001496ED91FC911597808190E01E960C9012
:100CC0001E9702C0959587950A94E2F780FF0CC0A5
:100CD00021965196DC93CE9350971896ED91FC9106
:100CE00019978A91808304C051967C936E93509794
:100CF00080E0DF91CF910895DC019B0150968D91AA
:100D00009C915197892B11F081E0089581E05496D0
:100D10008C9354974115510529F451961C921E92BB
:100D2000509725C01496ED91FC911597808190E025
:100D30001E960C901E9702C0959587950A94E2F72F
:100D400080FF17C02F5F3F4F51963C932E935097D3
:100D5000215030404150504053965C934E935297EF
:100D600018960D90BC91A02DF90184918C9380E090
:100D7000089551967C936E93509753965C934E933F
:100D8000529780E00895CF93DF93DC01EB015096FA
:100D90008D919C915197892B11F081E036C054962A
:100DA0001C9254974115510529F451961C921E929C
:100DB00050972AC01496ED91FC911597808190E090
:100DC0001E960C901E9702C0959587950A94E2F79F
:100DD00080FF12C021965196DC93CE9350974150DC
:100DE000504053965C934E9352971896ED91FC9118
:100DF00019978A91808308C051967C936E9350977F
:100E000053965C934E93529780E0DF91CF91089573
:100E1000FC01808191810E94D2070895FC018081AC
:100E200091810E94CE070895FC01808191810E94EA
:100E3000B2070895CF92DF92EF92FF920F931F9324
:100E4000CF93DF936C018B01E42EFC0180819181B3
:100E50000E94E0078D309105D9F00A97C9F02FEF75
:100E60003FEF29C0EF2DF0E0EC17FD0731F4C00F84
:100E7000D11F18822EEF3FEF1EC08D309105A9F0D3
:100E80008A30910591F0E00FF11F8083F39404C044
:100E9000FF24CE2DD0E02197F601808191810E9420
:100EA000B207FFEF8F3F9F07E9F60F0D111DF80105
:100EB000108220E030E0C901DF91CF911F910F91A6
:100EC000FF90EF90DF90CF9008951F93CF93DF9323
:100ED000EC01E885F985108188819981612F0E9454
:100EE00095078D89882379F0EC81FD81808190E0E0
:100EF0000E8402C0959587950A94E2F780FF03C09F
:100F0000E885F9851083DF91CF911F910895FC0149
:100F1000718360834283138214820895FC0171837C
:100F200060834283138214820895CF93DF93EC0190
:100F3000462F8B81282F30E06A81C901019670E02D
:100F40000E94540F982F8C81981711F481E007C0EC
:100F5000E881F981E20FF31F40839B8380E0DF91FA
:100F6000CF910895CF93DF93EC019C818B818917FA
:100F700019F42FEF3FEF0EC0892F90E0E881F9813F
:100F8000E80FF91F20816A81019670E00E94540FDA
:100F90008C8330E0C901DF91CF910895FC018481F9
:100FA00083830895FC01628170E083819B01280F97
:100FB000311DC9012481821B91090E94540F08959B
:100FC000FC0193818481981719F4EFEFFFEF0FC0B4
:100FD000992311F4828101C0892F90E0019701903B
:100FE000F081E02DE80FF91F8081E82FF0E0CF01BC
:100FF0000895FC01A22F718360834283538324836D
:101000008FEF8583FA0180E09FEF0CC01086178276
:1010100016821582128211821082148213829187A5
:101020008F5F3A968A1790F30895FC01A22F71837F
:1010300060834283538324838FEF8583FA0180E0AA
:101040009FEF0CC0108617821682158212821182C1
:1010500010821482138291878F5F3A968A1790F3D9
:1010600008950F931F93EAE06E9FB0011124FC01D5
:1010700002811381060F171F332727FD3095432F59
:10108000532FCA01B90120E034E244EF50E00E943E
:10109000350F20E432E44FE050E00E94670FF80182
:1010A000368325831F910F91089520E0FC018581EF
:1010B0008F3F09F421E0822F08950F931F93CF9360
:1010C000DF938C0140E05AE054C0F801A281B38163
:1010D000F901EE0FFF1FC90163E0880F991F6A95A0
:1010E000E1F7E80FF91FEA0FFB1F8185859FE001FB
:1010F0001124CA0FDB1F6B817C81C9010196FC01A1
:1011000033E0EE0FFF1F3A95E1F7880F991FE80FC4
:10111000F91FEA0FFB1F2185822F90E0FC0133E0CD
:10112000EE0FFF1F3A95E1F7880F991FE80FF91F9F
:10113000EA0FFB1F8381948186179707C8F49C836D
:101140008B83822F90E09C01F3E0220F331FFA95EE
:10115000E1F7880F991F280F391FA20FB31F1496AC
:101160007C936E931397423010F44FEF01C04250BE
:101170004F5F242F30E0F801848190E00197281719
:1011800039070CF4A2CFDF91CF911F910F910895F1
:10119000FC01808191810E94A60A0895CF92DF927E
:1011A000EF92FF920F931F93CF93DF93EC017A019D
:1011B0008AE0689FB0011124CA80DB80C60ED71E6A
:1011C00000E010E0F60127813085442737FD409587
:1011D000542F2058314C4F4F5F4F85819681AA275D
:1011E00097FDA095BA2F281B390B4A0B5B0BC80142
:1011F000B7010E94350FBC0188279927F601748337
:101200006383888199810E94F50E882319F0CE01AD
:101210000E945D08DF91CF911F910F91FF90EF9099
:10122000DF90CF900895FC0185818F3F21F4CF019D
:101230000E94CE080895FFCFEF92CF93DF93EC0189
:10124000DA018AE0689FB0011124EA81FB81E60F90
:10125000F71FE282EA81FB81E60FF71F31832083CB
:10126000148213822C9181E090E002C0880F991FB4
:10127000EA94E2F7282B2C93888199810E94F50E3D
:10128000882319F0CE010E945D08DF91CF91EF9085
:1012900008953F924F925F926F927F928F929F92AA
:1012A000AF92BF92CF92DF92EF92FF920F931F9374
:1012B000CF93DF93EC01888199810E949D0A3C01C4
:1012C0002D812F3FA9F560E070E040E050E03AE06A
:1012D00001E010E01DC0FD01E40FF51F8081918148
:1012E000892B91F0E185E39FF0011124EA0FFB1FA8
:1012F000A081B1812C91C801028002C0880F991F82
:101300000A94E2F7282B2C936F5F7F4F465F5F4F65
:101310008C8190E0AA81BB8168177907E4F21D8275
:1013200013964D915C9114978881998161E0B5C0C5
:10133000AA81BB81822F90E0FC0103E0EE0FFF1F2A
:101340000A95E1F7880F991FE80FF91FEA0FFB1FB5
:10135000818590E09C01F3E0220F331FFA95E1F7BD
:10136000880F991F280F391FA20FB31F13968D9056
:101370009C9014977AE0372E61E0462E512C2A81FA
:101380003B818D8190E0FC0153E0EE0FFF1F5A95E9
:10139000E1F7880F991FE80FF91FE20FF31FE185AE
:1013A000E39DF0011124E20FF31FA081B1812C9184
:1013B000C201028002C0880F991F0A94E2F780954B
:1013C00082238C939D819F5F9D838C81981760F40D
:1013D0004A815B81939DD0011124A40FB51F1996FA
:1013E0002C9119972F3F19F48FEF8D8339C0822FDD
:1013F00090E0FC0123E0EE0FFF1F2A95E1F7880F34
:10140000991FE80FF91FE40FF51FA380B480CC24C7
:10141000DD241A9719968C9190E09C0113E0220F1D
:10142000331F1A95E1F7880F991F280F391F420FB4
:10143000531FFA01E380F48000E010E08881998175
:101440000E949D0A86199709A0E0B0E08E0D9F1DAD
:10145000A01FB11F8A159B05AC05BD0508F08FCFF5
:101460002D81488159812F3FF9F0822F90E09C0116
:10147000A3E0220F331FAA95E1F7880F991F280FC9
:10148000391FEA81FB81E20FF31F3A978381948130
:10149000881A990ACA0161E0A40120E030E000E066
:1014A00010E00E94140B0EC0CA0140E25EE460E04E
:1014B00070E000E010E020E030E0CC24DD24760194
:1014C0000E94B60B888199810E94DD0ADF91CF913D
:1014D0001F910F91FF90EF90DF90CF90BF90AF9052
:1014E0009F908F907F906F905F904F903F90089566
:1014F000CF93DF93EC0120E04AE03FEF0FC0249F41
:10150000C0011124EA81FB81E80FF91F80819181DC
:10151000892B11F0218701C031872F5F8C8128171B
:1015200070F31D82CE010E945D08CE0160E070E084
:101530000E944909DF91CF910895DC019196ED91C8
:10154000FC91929720813181C9010895DC011296A6
:10155000ED91FC91139790811E968C911E9780952A
:10156000892380831A96ED91FC911B9790811C969C
:101570008C911C9780958923808350968C915097ED
:10158000882359F01A96ED91FC911B9790811D9636
:101590008C911D9780958923808394968C91949744
:1015A000882351F01A96ED91FC911B9790819396A8
:1015B0008C918095892380830895DC019196ED912B
:1015C000FC919297118210821296ED91FC911397E3
:1015D00080811E969C911E97892B80831A96ED918F
:1015E000FC911B971C968C911C97808350968C9134
:1015F0005097882351F01A96ED91FC911B978081AA
:101600001D969C911D97892B808394968C9194971D
:10161000882349F01A96ED91FC911B97808193964F
:101620009C91892B808308950F931F93DC01ED918A
:10163000FC91119710821296ED91FC9113971E96D2
:101640008C911E97862B80839196ED91FC919297B9
:10165000118210825B96ED91FC915C9751834083DF
:101660002115310559F05D96ED91FC915E9731831E
:10167000208381E050968C93509703C050961C9223
:1016800050970115110551F05F96ED91FC919097DF
:101690001183008381E094968C9302C094961C92EF
:1016A0001F910F9108950F931F93CF93DF93F9012B
:1016B000E801413080E0580781E0680780E0780762
:1016C00018F481E0808344C0413080E0580788E00E
:1016D000680780E0780750F482E0808333E07695F5
:1016E0006795579547953A95D1F732C0413080E0DC
:1016F000580780E4680780E0780750F483E080832F
:1017000026E076956795579547952A95D1F720C09D
:10171000413080E0580780E0680781E0780738F4BE
:1017200084E08083BB27A72F962F852F12C04130DE
:1017300080E0580780E0680784E0780760F485E07F
:1017400080838AE076956795579547958A95D1F776
:10175000CA01019704C085E080838FEF9FEF9983D2
:101760008883DF91CF911F910F9108952F923F921F
:101770004F925F926F927F928F929F92AF92BF92A1
:10178000CF92DF92EF92FF920F931F93DF93CF934D
:1017900000D00F92CDB7DEB75C0138014901F3E00C
:1017A000440F551F661F771FFA95D1F7E2E02E2EE2
:1017B000312C2C0E3D1E2E010894411C511C92010F
:1017C00081010E94530BD501ED91FC91119710827C
:1017D0001296ED91FC9113971E968C911E9799810C
:1017E000892B80839196ED91FC91929711821082C2
:1017F0005B96ED91FC915C978A819B8191838083BC
:101800006114710481049104D1F053E0660C771CDB
:10181000881C991C5A95D1F7C501B401A301920106
:101820000E94530BD5015D96ED91FC915E978A81E4
:101830009B819183808381E050968C9309C0D50170
:101840005D96ED91FC915E971182108250961C92EC
:10185000C114D104E104F104F9F043E0CC0CDD1C27
:10186000EE1CFF1C4A95D1F7C501B701A6019E01E8
:101870002F5F3F4F8E010E5F1F4F0E94530BD5010C
:101880005F96ED91FC9190978A819B8191838083F3
:1018900081E094968C9309C0D5015F96ED91FC91FF
:1018A00090971182108294961C920F900F900F9037
:1018B000CF91DF911F910F91FF90EF90DF90CF902C
:1018C000BF90AF909F908F907F906F905F904F9060
:1018D0003F902F900895CF92DF92EF92FF920F9357
:1018E0001F93FC01728B618B548B438B368B258B42
:1018F000108F078BF6A2E5A2D0A6C7A21F910F9169
:10190000FF90EF90DF90CF900895DC019596ED91D8
:10191000FC919697309729F097968D919C91989786
:10192000099508952F923F924F925F926F927F9206
:101930008F929F92AF92BF92CF92DF92EF92FF92DF
:101940000F931F93DF93CF93CDB7DEB77C013B019D
:101950002A0119010E94720DF7017182608253827F
:101960004282328E218E148F038FD68EC58EB2A204
:10197000A1A2938682868D8984878E8985878F89A7
:1019800083A3888D868781E08787CF91DF911F9120
:101990000F91FF90EF90DF90CF90BF90AF909F900E
:1019A0008F907F906F905F904F903F902F90089511
:1019B0002F923F924F925F926F927F928F929F925F
:1019C000AF92BF92CF92DF92EF92FF920F931F934D
:1019D000DF93CF93CDB7DEB77C013B012A0119011C
:1019E0000E94720DF7017182608253824282328EB0
:1019F000218E148F038FD68EC58EB2A2A1A293869C
:101A000082868D8984878E8985878F8983A3888D37
:101A1000868781E08787CF91DF911F910F91FF909B
:101A2000EF90DF90CF90BF90AF909F908F907F907E
:101A30006F905F904F903F902F9008958F92AF924C
:101A4000CF92DF92EF92FF920F931F93DF93CF938A
:101A5000CDB7DEB7FC017183608353834283358346
:101A6000248317830683F186E086D386C286A48604
:101A700085868D85868781E08787CF91DF911F914D
:101A80000F91FF90EF90DF90CF90AF908F900895DF
:101A90008F92AF92CF92DF92EF92FF920F931F93AC
:101AA000DF93CF93CDB7DEB7FC017183608353839F
:101AB00042833583248317830683F186E086D386A9
:101AC000C286A48685868D85868781E08787CF91AB
:101AD000DF911F910F91FF90EF90DF90CF90AF902B
:101AE0008F900895089508950F931F93CF93DF93D8
:101AF000F901E801413081E0580780E0680780E0A3
:101B0000780718F481E0808368C0413088E0580786
:101B100080E0680780E0780750F482E08083F3E09B
:101B20007695679557954795FA95D1F756C0413008
:101B300080E2580780E0680780E0780750F483E08F
:101B40008083E5E07695679557954795EA95D1F7B7
:101B500044C0413080E4580780E0680780E078079F
:101B600050F484E0808336E07695679557954795E5
:101B70003A95D1F732C0413080E8580780E06807D5
:101B800080E0780750F485E0808327E076956795BC
:101B9000579547952A95D1F720C0413080E05807E6
:101BA00081E0680780E0780738F486E08083BB270F
:101BB000A72F962F852F12C0413080E0580784E070
:101BC000680780E0780760F487E080838AE0769594
:101BD0006795579547958A95D1F7842F815003C013
:101BE00087E080838FEF8883DF91CF911F910F91E2
:101BF0000895AF92BF92CF92DF92EF92FF920F9330
:101C00001F93DF93CF9300D0CDB7DEB77C0158018F
:101C10006901B3E0440F551F661F771FBA95D1F7CE
:101C20009E012F5F3F4F8E010E5F1F4F0E94740D6C
:101C3000D70112968D919C911397ED91FC9111977C
:101C40001E962C911E97892B59F080812095282370
:101C500020831296ED91FC9113978981808304C0B3
:101C60002095898128232083D7011896ED91FC9136
:101C7000199710821496ED91FC9115978A818083B3
:101C8000A114B104C104D104D1F0A3E0AA0CBB1C7F
:101C9000CC1CDD1CAA95D1F7C701B601A5019E0198
:101CA0002F5F3F4F8E010E5F1F4F0E94740DD701B3
:101CB0001696ED91FC9117978A81808306C0D70113
:101CC0001696ED91FC91179710820F900F90CF917F
:101CD000DF911F910F91FF90EF90DF90CF90BF9019
:101CE000AF900895DC0112968D919C911397ED9120
:101CF000FC9111971E963C911E97892B51F0808183
:101D00003095382330831296ED91FC9113976083C0
:101D100003C03095362330831896ED91FC911997C6
:101D200010821496ED91FC91159740831696ED91D3
:101D3000FC91179720830895DC011896ED91FC9192
:101D400019971082ED91FC91119780811E969C91BC
:101D50001E97892B80831A96ED91FC911B978081A9
:101D60001C969C911C97892B80831696ED91FC9173
:101D700017978081882371F01A96ED91FC911B973B
:101D800080811D969C911D97892B808381E05096C0
:101D90008C93089550961C920895DC01ED91FC916E
:101DA000119790811E968C911E9780958923808330
:101DB0001A96ED91FC911B9790811C968C911C9723
:101DC0008095892380831696ED91FC9117978081E9
:101DD000882351F01A96ED91FC911B9790811D96E6
:101DE0008C918095892380830895DC01ED91FC918D
:101DF0001197208140E030E01E968C9190E02823DE
:101E00003923232B09F041E0842F0895CF93DF93EA
:101E1000EC018F85882319F4CE010E94CD0EE9894B
:101E2000FA898B899C890995DF91CF910895DC010E
:101E30005596ED91FC915697309729F057968D91D4
:101E40009C915897099508950F931F93FC01728BED
:101E5000618B548B438B368B258B108F078B1F9197
:101E60000F910895FC0167870895629FD001739FC9
:101E7000F001829FE00DF11D649FE00DF11D929F26
:101E8000F00D839FF00D749FF00D659FF00D992765
:101E9000729FB00DE11DF91F639FB00DE11DF91F89
:101EA000BD01CF011124089597FB092E07260AD002
:101EB00077FD04D02ED006D000201AF470956195DD
:101EC0007F4F0895F6F7909581959F4F0895A1E271
:101ED0001A2EAA1BBB1BFD010DC0AA1FBB1FEE1FA4
:101EE000FF1FA217B307E407F50720F0A21BB30BEF
:101EF000E40BF50B661F771F881F991F1A9469F76B
:101F000060957095809590959B01AC01BD01CF01C6
:101F10000895AA1BBB1B51E107C0AA1FBB1FA61730
:101F2000B70710F0A61BB70B881F991F5A95A9F782
:101F300080959095BC01CD010895EE0FFF1F05908F
:101F4000F491E02D0994AEE0B0E0E9EAFFE00C94F2
:101F50005F120D891E898F89988D97FF02C080E0DE
:101F600090E801979E838D831A83098386E08C8392
:101F70009E01255E3F4FCE010196698D7A8DA901A4
:101F80000E94D40F4D815E8157FD0AC02F81388594
:101F9000421753070CF49A01020F131FF801108225
:101FA0002E96E4E00C947B12ABE0B0E0EAEDFFE0AB
:101FB0000C9451123C012B015A01FC01178216822C
:101FC000838181FD03C06FEF7FEFC6C19AE0892E48
:101FD0001E010894211C311CF3012381F20123FD11
:101FE000859123FF81912F01882309F4B2C18532A5
:101FF00039F423FD859123FF81912F01853229F446
:1020000090E0B3010E94C711E7CF982FFF24EE2480
:102010009924FFE1FF15D0F09B3269F09C3228F43F
:10202000903259F0933291F40EC09D3249F09033C2
:1020300069F441E024C052E0F52A84E0F82A28C07F
:1020400098E0F92A25C0E0E1FE2A22C0F7FC29C069
:10205000892F80538A3070F4F6FE05C0989C902C2E
:102060001124980E15C0E89CE02C1124E80EF0E233
:10207000FF2A0EC09E3229F4F6FC6BC140E4F42A1C
:1020800007C09C3619F450E8F52A02C0983649F486
:10209000F20123FD959123FF91912F01992309F0DE
:1020A000B8CF892F8554833018F08052833038F4AC
:1020B00044E050E0A40EB51E5FE359830FC0933691
:1020C00031F0933779F0933509F056C020C0F5010F
:1020D0008081898342E050E0A40EB51E610101E0D9
:1020E00010E012C0F501C080D180F6FC03C06FEF94
:1020F0007FEF02C0692D70E042E050E0A40EB51EF3
:10210000C6010E94BC118C015FE7F52214C0F501E5
:10211000C080D180F6FC03C06FEF7FEF02C0692D55
:1021200070E042E050E0A40EB51EC6010E94B1115D
:102130008C0150E8F52AF3FE07C01AC080E290E057
:10214000B3010E94C711EA948E2D90E00817190779
:10215000A8F30EC0F601F7FC8591F7FE81916F019F
:1021600090E0B3010E94C711E110EA9401501040C1
:102170000115110579F7EAC0943611F0993669F521
:10218000F7FE08C0F501208131814281538184E04E
:1021900090E00AC0F501808191819C01442737FDC0
:1021A0004095542F82E090E0A80EB91E9FE6F922D8
:1021B00057FF09C050954095309521953F4F4F4F9F
:1021C0005F4FE0E8FE2ACA01B901A1012AE030E030
:1021D0000E94F311D82ED21840C0953729F41F2D34
:1021E0001F7E2AE030E01DC01F2D197F9F3661F051
:1021F000903720F4983509F0ACC00FC0903739F013
:10220000983709F0A6C004C028E030E00AC0106189
:1022100014FD146020E130E004C014FD166020E1DC
:1022200032E017FF08C0F5016081718182819381DE
:1022300044E050E008C0F50180819181BC0180E05C
:1022400090E042E050E0A40EB51EA1010E94F311FF
:10225000D82ED2188FE7F82EF122F6FE0BC05EEFD3
:10226000F522D91438F4F4FE07C0F2FC05C08FEE55
:10227000F82202C01D2D01C0192DF4FE0DC0FE0173
:10228000ED0DF11D8081803319F499EEF92208C01B
:102290001F5FF2FE05C003C08F2D867809F01F5F17
:1022A0000F2DF3FC14C0F0FE0FC01E1510F09D2C76
:1022B0000BC09D2C9E0C911A1E2D06C080E290E052
:1022C000B3010E94C7111F5F1E15C0F304C01E1585
:1022D00010F4E11A01C0EE2404FF0FC080E390E087
:1022E000B3010E94C71102FF1DC001FD03C088E7B2
:1022F00090E00EC088E590E00BC0802F867891F0CA
:1023000001FF02C08BE201C080E2F7FC8DE290E0A9
:10231000B3010E94C71106C080E390E0B3010E94A0
:10232000C7119A94D914C0F3DA94F101ED0DF11D9F
:10233000808190E0B3010E94C711DD20A9F706C09B
:1023400080E290E0B3010E94C711EA94EE20C1F749
:1023500043CEF30166817781CB012B96E2E10C94A9
:102360006D12FC010590615070400110D8F7809506
:1023700090958E0F9F1F0895FC0161507040019051
:102380000110D8F7809590958E0F9F1F08950F9399
:102390001F93CF93DF938C01EB018B8181FF1BC0D7
:1023A00082FF0DC02E813F818C819D8128173907C6
:1023B00064F4E881F9810193F983E88306C0E88534
:1023C000F985802F0995892B31F48E819F810196A3
:1023D0009F838E8302C00FEF1FEFC801DF91CF9163
:1023E0001F910F910895FA01AA27283051F1203149
:1023F00081F1E8946F936E7F6E5F7F4F8F4F9F4F99
:10240000AF4FB1E03ED0B4E03CD0670F781F891FDA
:102410009A1FA11D680F791F8A1F911DA11D6A0FA8
:10242000711D811D911DA11D20D009F468943F915B
:102430002AE0269F11243019305D3193DEF6CF015A
:102440000895462F4770405D4193B3E00FD0C9F720
:10245000F6CF462F4F70405D4A3318F0495D31FD8D
:102460004052419302D0A9F7EACFB4E0A6959795E0
:10247000879577956795BA95C9F7009761057105B6
:1024800008959B01AC010A2E069457954795379500
:102490002795BA95C9F7620F731F841F951FA01D5A
:1024A00008952F923F924F925F926F927F928F92F8
:1024B0009F92AF92BF92CF92DF92EF92FF920F93D3
:1024C0001F93CF93DF93CDB7DEB7CA1BDB0B0FB6DD
:1024D000F894DEBF0FBECDBF09942A88398848889A
:1024E0005F846E847D848C849B84AA84B984C88430
:1024F000DF80EE80FD800C811B81AA81B981CE0F27
:10250000D11D0FB6F894DEBF0FBECDBFED0108950B
:04251000F894FFCF6D
:102514005374617274696E672075700D0A00427598
:102524007379207772697465732C2025730D0A0002
:102534006E6F726D616C20737472696E67004173A3
:10254400796E63207772697465732C206E6F726D77
:10255400616C20737472696E670D0A004275737939
:10256400207772697465732C206E6F726D616C20B4
:102574006275666665720D0A004173796E63207731
:1025840072697465732C206E6F726D616C20627554
:10259400666665720D0A004F4B2C206E6F772074AF
:1025A40079706520736F6D657468696E6720616EFC
:1025B4006420707265737320656E7465720D0A0011
:1025C4000A596F7520736169643A202700270D0A40
:0225D400000005
:00000001FF
