:100000000C9472000C949A000C949A000C949A0030
:100010000C949A000C949A000C949A000C949A00F8
:100020000C949A000C949A000C949A000C949A00E8
:100030000C949A000C949A000C94A3000C949A00CF
:100040000C949A000C949A000C949A000C949A00C8
:100050000C949A000C949A000C949A000C949A00B8
:100060000C949A000C949A00416C6C20646F6E653D
:1000700000342E2048657265206973206120627506
:100080006666657220696E2050524F474D454D207F
:10009000636F6E7461696E696E6720736F6D652042
:1000A000646174612F2F546869732077696C6C20C8
:1000B0006E6F742073686F7700322E20486572650A
:1000C00020697320737472696E67206F662074658F
:1000D000787420696E2050524F474D454D0054149E
:1000E00040003E0111241FBECFEFD8E0DEBFCDBFE0
:1000F00011E0A0E0B1E0E4E6F8E102C005900D9265
:10010000A639B107D9F712E0A6E9B1E001C01D9206
:10011000A633B107E1F710E0C4EED0E004C02297A7
:10012000FE010E942C0CC23ED107C9F70E94E600D6
:100130000C94300C0C94000086E092E00E94D509EB
:100140000895F894FFCF1F920F920FB60F921124CB
:100150002F933F934F935F936F937F938F939F93CF
:10016000AF93BF93EF93FF938CEE91E00E940B0C43
:10017000FF91EF91BF91AF919F918F917F916F917F
:100180005F914F913F912F910F900FBE0F901F9055
:1001900018950F931F938C0160E071E00E94360266
:1001A000C80169EB70E00E94EB01C8016CE171E0ED
:1001B00048E250E00E94D102C80161E770E043E3E9
:1001C00050E00E9481021F910F910895AF92CF924B
:1001D000EF920F931F93DF93CF9300D0CDB7DEB78D
:1001E00078943D9A459A259A86E092E060E041E055
:1001F00020E000E0EE24CC24C394AA240E946807E7
:100200008CEE91E064E044E220E00E946C0B8CEE06
:1002100091E06CE970E040E050E020E030E000E088
:1002200010E00E941C0C8CEE91E00E94990B86E07D
:1002300092E00E94C9000CC08CE02FE73AE146E052
:10024000215030404040E1F700C000008150A9F744
:1002500086E092E063E070E00E94A105882361F7E8
:100260001A82198286E092E0BE016F5F7F4F43E001
:1002700050E028E630E00E94B104FFCF8F929F92B9
:10028000AF92BF92CF92DF92EF92FF920F931F93A4
:10029000CF93DF93C7EED1E0CE0166E971E041E58F
:1002A0000E942E0A8CEE91E060E044E450E025E4E8
:1002B00030E007E410E0E8E4EE2EF12C76E4C72EFF
:1002C000D12CBEE6AB2EB12C882483940E94F00A78
:1002D0008DB79EB70F970FB6F8949EBF0FBE8DBF18
:1002E000EDB7FEB73196ADB7BEB711961C9288E058
:1002F000818387E290E09383828388E290E0958314
:10030000848386E290E09783868383E080878BE016
:10031000818784E1828784E090E094878387D68711
:10032000C58786E092E064E270E045E250E023E2B7
:1003300030E000E0EE24A7E2CA2ED12CF8E2AF2E86
:10034000B12CE6E28E2E912C0E9428088DB79EB724
:100350000F960FB6F8949EBF0FBE8DBFDF91CF9161
:100360001F910F91FF90EF90DF90CF90BF90AF90D3
:100370009F908F900895FC018DE591E0918380839B
:100380007387628713821282158214821782168203
:10039000108611860895CF93DF93EC01EE81FF81E3
:1003A000309719F08A819B810995BE016E5F7F4F5E
:1003B0008A859B8548E00E94730A882321F01D8668
:1003C0001C8680E005C08A819B819D878C8781E0A7
:1003D000DF91CF910895EF92FF920F931F93DF93D8
:1003E000CF93CDB7DEB728970FB6F894DEBF0FBE18
:1003F000CDBF8C017B01DC011A968D919C911B97DE
:1004000068E00E94A10A882309F5FA82E9821C8229
:100410001B821E821D8281E08F838887F80182857E
:100420009385BE016F5F7F4F48E00E94C10AD801EB
:100430001C968D919C911D97009751F4ED91FC9124
:100440000190F081E02DC801099502C081E001C052
:1004500080E028960FB6F894DEBF0FBECDBFCF91D7
:10046000DF911F910F91FF90EF900895EF92FF920F
:100470000F931F93DF93CF93CDB7DEB728970FB6B7
:10048000F894DEBF0FBECDBF8C017B01DC011A9654
:100490008D919C911B9768E00E94A10A882309F521
:1004A000FA82E9821C821B821E821D821F8281E0E9
:1004B0008887F80182859385BE016F5F7F4F48E092
:1004C0000E94C10AD8011C968D919C911D9700979E
:1004D00051F4ED91FC910190F081E02DC801099556
:1004E00002C081E001C080E028960FB6F894DEBF1C
:1004F0000FBECDBFCF91DF911F910F91FF90EF9075
:100500000895CF92DF92EF92FF920F931F93DF93A4
:10051000CF93CDB7DEB728970FB6F894DEBF0FBEE6
:10052000CDBF8C016B017A01DC011A968D919C91F3
:100530001B9768E00E94A10A882309F5DA82C98224
:10054000FC82EB821E821D8281E08F831886F80177
:1005500082859385BE016F5F7F4F48E00E94C10A8C
:10056000D8011C968D919C911D97009751F4ED91A7
:10057000FC910190F081E02DC801099502C081E055
:1005800001C080E028960FB6F894DEBF0FBECDBF45
:10059000CF91DF911F910F91FF90EF90DF90CF905F
:1005A0000895CF92DF92EF92FF920F931F93DF9304
:1005B000CF93CDB7DEB728970FB6F894DEBF0FBE46
:1005C000CDBF8C016B017A01DC011A968D919C9153
:1005D0001B9768E00E94A10A882301F5DA82C9828C
:1005E000FC82EB821E821D821F821886F8018285A2
:1005F0009385BE016F5F7F4F48E00E94C10AD8011A
:100600001C968D919C911D97009751F4ED91FC9152
:100610000190F081E02DC801099502C081E001C080
:1006200080E028960FB6F894DEBF0FBECDBFCF9105
:10063000DF911F910F91FF90EF90DF90CF90089581
:10064000FC012089318921503040338B228B0E945C
:10065000CB010895EF92FF920F931F93CF93DF93F7
:10066000EC017B018A01B9010E94BB0183E691E0A4
:1006700099838883F98AE88A1F870E8781E0888FAB
:10068000898F1D8A1C8A1F8A1E8ADF91CF911F9134
:100690000F91FF90EF900895DC0155965C934E9377
:1006A000549757967C936E935697ED91FC910680E4
:1006B000F781E02D09950895BF92CF92DF92EF92D6
:1006C000FF920F931F93CF93DF93EC010E851F854D
:1006D000025010402CC0E881F9810680F781E02D9E
:1006E000CE01B701A6010995E881F9810480F58161
:1006F000E02DCE010995B82EE881F9810680F781B9
:10070000E02DCE01B701A8010995E881F9810280A9
:10071000F381E02DCE016B2D09950894E11CF11CAD
:1007200088899989E816F906B0F201501040011540
:10073000110539F0EE24FF2468010894C11CD11C76
:10074000EFCFE881F9810680F781E02DCE0160E0EE
:1007500070E040E050E0099500E010E00AC0E88158
:10076000F9810280F381E02DCE0160E209950F5FEF
:100770001F4F888999890817190788F3CE0160E00F
:1007800070E040E050E00E944C03DF91CF911F9158
:100790000F91FF90EF90DF90CF90BF9008951F933F
:1007A000CF93DF93EC01162F6930F9F06A3009F42A
:1007B00046C0683009F05BC0888D882389F08E8937
:1007C0009F89009769F48C899D8901962E853F85C4
:1007D0008217930710F49D8B8C8B6889798902C0EE
:1007E0006E897F896150704026C08E899F890496EA
:1007F0008C7F9F8B8E8B2889398982179307C8F04D
:10080000888D882391F08C899D89009721F001972C
:100810009D8B8C8B07C0898D882321F0CE010E948F
:100820005C0355C01F8A1E8A04C0215030403F8B94
:100830002E8B6E897F894C895D89CE0115C08C898C
:100840009D89009721F001979D8B8C8B06C0898D27
:10085000882319F0CE010E945C031F8A1E8A4C89EE
:100860005D89CE0160E070E00E944C0330C02E89AB
:100870003F89888999890197A9014F5F5F4F5F8BF5
:100880004E8B28173907D8F0888D8823C1F01F8A2E
:100890001E8A8C899D89009721F001979D8B8C8BF6
:1008A0000EC0898D882321F0CE010E945C0307C011
:1008B000CE0160E070E040E050E00E944C03E8812F
:1008C000F9810280F381E02DCE01612F0995DF913E
:1008D000CF911F910895AF92BF92CF92DF92EF9286
:1008E000FF920F931F93CF93DF936C017B0159010C
:1008F000C0E0D0E006C06F5F7F4FF7017183608377
:100900002196F7016081718177FDF5CFC6010E94C4
:100910004C0380E0C017D107C8F4F7012081318172
:10092000F60140895189B9016F5F7F4FF7017183EB
:1009300060832417350754F4F501EC0FFD1F219651
:100940006491C6010E94CF0381E0E4CFDF91CF9193
:100950001F910F91FF90EF90DF90CF90BF90AF90DD
:100960000895AF92BF92CF92DF92EF92FF920F93D2
:100970001F93CF93DF937C018B016A01A22EE501C7
:100980005E01B32EE5010AC06F5F7F4FF8017183EE
:1009900060832196FE018491882341F1F8016081F2
:1009A000718177FDF1CFC701A6010E944C03F701C9
:1009B00086859785C816D906C8F480E0FE01219681
:1009C00064916623A1F0F80120813181F70140890B
:1009D0005189D9011196F801B183A08324173507F5
:1009E00034F4C7010E94CF0381E0E8CF80E0DF91BB
:1009F000CF911F910F91FF90EF90DF90CF90BF901C
:100A0000AF9008958F929F92AF92BF92CF92DF9254
:100A1000EF92FF920F931F93CF93DF936C017B01B3
:100A200049015801FB01C081D181D7FF06C0D09593
:100A3000C195DF4F1182108202C0C0E0D0E0F70103
:100A400060817181C6010E944C0384010C0F1D1F3F
:100A500080E0CA15DB05C0F4F70120813181F60181
:100A600040895189B9016F5F7F4FF70171836083BE
:100A7000241735074CF4F80161918F012196C601C6
:100A80000E94CF0381E0E5CFDF91CF911F910F91BD
:100A9000FF90EF90DF90CF90BF90AF909F908F909E
:100AA0000895AF92BF92CF92DF92EF92FF920F9391
:100AB0001F93CF93DF937C018B016A01A22EE50186
:100AC0005E01B32EE50109C06F5F7F4FF8017183AE
:100AD000608321968881882341F1F80160817181CA
:100AE00077FDF2CFC701A6010E944C03F70186856E
:100AF0009785C816D906C8F480E098819923B1F08B
:100B0000F80120813181F70140895189B9016F5F76
:100B10007F4FF80171836083241735073CF4699196
:100B2000C7010E94CF0381E0E8CF80E0DF91CF9141
:100B30001F910F91FF90EF90DF90CF90BF90AF90FB
:100B40000895EF92FF920F931F93DF93CF9300D0FE
:100B5000CDB7DEB77C018B01DC011C968D919C9199
:100B60001D97009709F461C052968D919C915397FF
:100B70009A838983019753969C938E935297C701CA
:100B800060E070E0A8010E944C03F7019085818528
:100B90009923B9F024853585BE016F5F7F4F882387
:100BA00029F0C701A8010E94B10422C0D701149600
:100BB000ED91FC911597C701A8018F010E946B046C
:100BC00017C0F70124853585BE016F5F7F4F8823ED
:100BD00029F0C701A8010E9451050AC0D701149647
:100BE000ED91FC911597C701A8018F010E940205A4
:100BF000082F04C0C70160E20E94CF0349815A81D7
:100C0000F70120893189BA016F5F7F4F7A83698349
:100C1000421753077CF3002351F421503040338BAB
:100C2000228BC7010E94CB0103C080E001C081E09C
:100C30000F900F90CF91DF911F910F91FF90EF9048
:100C400008950F931F93DF93CF930F92CDB7DEB725
:100C50008C01D801ED91FC910684F785E02DC80147
:100C60006983099569818823A1F7D801ED91FC91E9
:100C70000284F385E02DC80141E009950F90CF91E2
:100C8000DF911F910F910895CF93DF93EC01E881DD
:100C9000F9810684F785E02DCE0109958823B9F7FF
:100CA000E881F9810484F585E02DCE0161E00995A4
:100CB000DF91CF910895CF93DF93EC0170E00E9414
:100CC0002A0381E791E0998388831B8E1A8E80E442
:100CD00090E09D8F8C8F1E8EDF91CF910895462BD3
:100CE000DC015E962C915E97222331F0BEE7BA9527
:100CF000F1F700C0FC01168EDC01ED91FC9102843D
:100D0000F385E02D642F40E009950895CF93DF939C
:100D1000EC01E881F9810684F785E02DCE01099583
:100D20008823B9F7CE0161E040E00E946F068E850E
:100D30009F8501979D8B8C8B1F8A1E8ADF91CF9197
:100D400008951F93CF93DF93EC01162F110F142BEF
:100D5000E881F9810684F785E02DCE010995882385
:100D6000B9F7CE0164E0412F0E946F06DF91CF9169
:100D70001F9108950F931F93DF93CF930F92CDB7D9
:100D8000DEB78C01660F660F622B440F462BD8012D
:100D9000ED91FC910684F785E02DC8014983099502
:100DA00049818823A1F7C80168E00E946F060F906F
:100DB000CF91DF911F910F9108950F931F93DF93B0
:100DC000CF930F92CDB7DEB78C01440F440F440F81
:100DD000862F880F842B220F220F282B662391F455
:100DE000D801ED91FC910284F385E02DC80162E207
:100DF00040E029830995E3E1F0E53197F1F700C080
:100E000000002981C80160E2422F0E946F060F9006
:100E1000CF91DF911F910F9108950F931F93DF934F
:100E2000CF930F92CDB7DEB78C01462FD801ED914D
:100E3000FC910684F785E02DC80149830995498115
:100E40008823A1F7C80160E80E946F060F90CF9138
:100E5000DF911F910F9108950F931F93DF93CF930D
:100E60000F92CDB7DEB78C01DC011E968D919C915F
:100E70001F978430910569F450968D919C915197FC
:100E80008431910531F4E42FF0E0E252FF4FE49118
:100E900005C0E42FF0E0E052FF4FE4916E0FF8013F
:100EA000A081B1811E96ED91FC911F97C8016983C5
:100EB00009956981882399F7C8010E940D070F9051
:100EC000CF91DF911F910F9108950E942C070895F3
:100ED000AF92CF92EF920F93CF93DF93EC016F8F8E
:100EE0008FE79FE4A2E181509040A040E1F700C06D
:100EF0000000CE010E94DD06A2ECB0E01197F1F7F0
:100F000000C00000CE0161E0402F2E2D0E94BA06E5
:100F1000E881F9810084F185E02DCE010995CE01AB
:100F20006C2D4A2D0E94A1068E859F8501979D8B71
:100F30008C8B1F8A1E8ADF91CF910F91EF90CF90FB
:100F4000AF9008951F93CF93DF93FC01A0A1B1A1AF
:100F50004C9186A190E0039621E030E0B90102C0F7
:100F6000660F771F8A95E2F7CB01809584238C93D7
:100F7000A2A1B3A14C9186A190E00396E90102C021
:100F8000CC0FDD1F8A95E2F7CE01809584238C93E8
:100F9000A0A5B1A54C9182A590E00196B90102C02F
:100FA000660F771F8A95E2F7462B4C9382E08A956D
:100FB000F1F7A0A5B1A54C9182A590E00296E901B8
:100FC00002C0CC0FDD1F8A95E2F74C2B4C9388E0D2
:100FD0008A95F1F7A4A1B5A18C9190E046A150E0CB
:100FE0004D5F5F4F02C0959587954A95E2F7A0A5A2
:100FF000B1A51C9142A550E0BA016F5F7F4FE90196
:1010000002C0CC0FDD1F6A95E2F7BE014E5F5F4F55
:10101000E90102C0CC0FDD1F4A95E2F7AE01462B75
:10102000409541234C93A0A1B1A16C9146A150E001
:101030004D5F5F4F02C0220F331F4A95E2F7622BCC
:101040006C9321E0268F8170DF91CF911F910895DD
:101050002F923F924F925F926F927F928F929F92C8
:10106000AF92BF92CF92DF92EF92FF920F93DF93F6
:10107000CF93CDB7DEB77C014B012A0119016E88F1
:101080007F886E8D4F8D58A129A13AA10E945B06E1
:1010900085E891E0D70111969C938E9391969C924E
:1010A0008E92909793965C924E92929795963C92E0
:1010B0002E92949796960C9396979996BC92AE9290
:1010C00098978C899A968C939A97888D998D9C96EF
:1010D0009C938E939B978C8D9D968C939D978FE080
:1010E00090E002C0880F991F0A95E2F797968C93BB
:1010F0009797F4012081282B20839296ED91FC9103
:101100009397908197968C91979780958923808368
:1011100087E090E09A960C9002C0880F991F0A947D
:10112000E2F7D6019C91982B9C93D7019896ED916C
:10113000FC919997908180958923808383E090E04A
:101140009D960C909D9702C0880F991F0A94E2F714
:10115000F3019081982B90839B96ED91FC919C9745
:10116000908180958923808385E09E968C939E97BD
:1011700086E09F968C939F97CF91DF910F91FF9080
:10118000EF90DF90CF90BF90AF909F908F907F9027
:101190006F905F904F903F902F900895CF93DF9383
:1011A000FC01A2A1B3A18C9157A150955823A0A5F1
:1011B000B1A57C9182A590E0019621E030E0E901A3
:1011C00002C0CC0FDD1F8A95E2F7CE018095872300
:1011D0008C93442359F0A0A5B1A58C9102A402C020
:1011E000220F331F0A94E2F7822B8C93A2A1B3A1A2
:1011F00070E006A002C0660F771F0A94E2F787A18D
:101200008623852B8C9382E08A95F1F7A0A5B1A562
:101210004C9122A530E02E5F3F4F81E090E0BC0171
:1012200002C0660F771F2A95E2F7462B4C9348E0E1
:10123000242F2A95F1F7A0A5B1A56C9152A5252FD1
:1012400030E02E5F3F4FEC0102C0CC0FDD1F2A952E
:10125000E2F702C0880F991F5A95E2F78C2B809510
:1012600086238C93842F8A95F1F7DF91CF9108958F
:101270000F931F93CF93DF93EC01062F142F262F8C
:1012800030E084E0359527958A95E1F7CE01622F0D
:101290000E94CE08602F6F70CE01412F0E94CE08B1
:1012A000DF91CF911F910F910895CF93DF93FC01B0
:1012B000A0A5B1A54C9182A590E0019621E030E077
:1012C000E90102C0CC0FDD1F8A95E2F74C2B4C934D
:1012D000662359F0A0A5B1A58C9102A402C0220FEB
:1012E000331F0A94E2F7822B8C93A0A1B1A19C91A9
:1012F00087A1809589238C9382E08A95F1F7A0A538
:10130000B1A54C9182A590E0029621E030E0B901B0
:1013100002C0660F771F8A95E2F7462B4C9368E070
:10132000862F8A95F1F7A4A1B5A18C91A0A5B1A5AE
:101330007C9192A5492F50E04E5F5F4FE90102C0BA
:10134000CC0FDD1F4A95E2F702C0220F331F9A959A
:10135000E2F72C2B209527232C93A0A1B1A19C91DF
:1013600027A1922B9C93962F9A95F1F790E006A0D7
:1013700002C0959587950A94E2F7DF91CF91089581
:101380000F931F93CF93DF93EC01162F0E94550903
:10139000082F0295007FCE01612F0E945509802BF6
:1013A000DF91CF911F910F910895FC01828D938D54
:1013B0008F7090700097D9F4A3A5B4A54C9185A522
:1013C00090E0019621E030E0B90102C0660F771F7E
:1013D0008A95E2F7462B4C93A3A5B4A58C9105A45E
:1013E00002C0220F331F0A94E2F7822B8C9326A5AA
:1013F00030E0828D938D8F7090702817390789F4B3
:10140000A3A5B4A54C9125A530E02F5F3F4F81E007
:1014100090E002C0880F991F2A95E2F780958423F7
:101420008C9327A530E0828D938D8F709070281754
:10143000390771F4A3A5B4A52C9181E090E005A42F
:1014400002C0880F991F0A94E2F7809582238C933B
:10145000828D938D0196938F828F0895FC01718305
:1014600060834283138214820895FC019381892F43
:101470008F5F2281821709F480E02481821741F076
:10148000A081B181A90FB11D6C93838380E0089581
:1014900081E00895FC0184819381981769F0A0810F
:1014A000B181A80FB11D2C918F5F9281891709F42A
:1014B00080E0848330E002C02FEF3FEFC901089540
:1014C000FC01438150E0248130E0CA01821B930B70
:1014D00097FF08C08281BA01680F711DCB01019688
:1014E000821B930B0895CF92DF92EF92FF920F939E
:1014F0001F93DF93CF930F92CDB7DEB76C01F62E1B
:10150000E42E79830E94600A79818E1578F00F2D80
:10151000172F06C0C6010E944A0AF80181938F0165
:10152000802F8F198E15B0F380E001C081E00F90FD
:10153000CF91DF911F910F91FF90EF90DF90CF90AF
:1015400008950F931F93DF93CF930F92CDB7DEB71C
:101550008C0169830E94600A482F50E0F8012281C3
:1015600030E0215030406981261B310981E0241789
:1015700035070CF080E00F90CF91DF911F910F9114
:101580000895CF92DF92EF92FF920F931F93DF9314
:10159000CF930F92CDB7DEB76C01F62EE42E642FF9
:1015A00079830E94A10A7981882379F40F2D172F5E
:1015B00006C0F80161918F01C6010E94350A802F93
:1015C0008F198E15B0F380E001C081E00F90CF91AC
:1015D000DF911F910F91FF90EF90DF90CF900895D2
:1015E0008F92AF92BF92CF92DF92EF92FF920F93C2
:1015F0001F93DF93CF93CDB7DEB7FC0151834083B8
:101600003383228315830483F782E682D186C086E2
:10161000B386A286848681E08687678788E0808B90
:101620001586118A158A148A118E108E138A128AD1
:10163000178A168ACF91DF911F910F91FF90EF903B
:10164000DF90CF90BF90AF908F900895DC011296FD
:10165000ED91FC9113978081887F682B60830895BA
:10166000FC018685823079F0823038F08430E1F0F8
:10167000843078F0853079F523C0A081B1818C91D8
:101680008C7F82600AC0A081B1818C918C7F816047
:101690000FC0A081B1818C9183608C930280F38113
:1016A000E02D8081877F0AC0A081B1818C91836009
:1016B0008C930280F381E02D80818860808308957F
:1016C000A081B1818C9183608C930280F381E02DA5
:1016D0008081877F80830895EF92FF921F93DF932D
:1016E000CF9300D0CDB7DEB77C011FB7F894DC01F3
:1016F0001D966C932A8349830E94260BD701189666
:10170000ED91FC91199710821496ED91FC9115972B
:10171000498140831696ED91FC9117972A81208389
:101720001FBF0F900F90CF91DF911F91FF90EF900F
:1017300008951F93CF93DF93EC011FB7F894E885CA
:10174000F98510826D850E94260BCE010E94300B18
:101750008A899B89009769F0EA85FB85208181E071
:1017600090E00C8402C0880F991F0A94E2F7282B9E
:101770002083EE81FF8180818823D9F08E899F8923
:101780000097B9F0EA85FB8540812C8530E02F5F1A
:101790003F4F81E090E002C0880F991F2A95E2F741
:1017A000482B408381E0898B1FBFDF91CF911F9130
:1017B0000895198AF9CF1F93CF93DF93EC011FB7D8
:1017C000F89460E00E94260BEA85FB85408121E0C9
:1017D00030E0C9010C8402C0880F991F0A94E2F717
:1017E0008095842380838989882381F0EA85FB851D
:1017F00040818C8590E00196B90102C0660F771F89
:101800008A95E2F7CB018095842380831FBFDF9107
:10181000CF911F910895CF93DF93EC018E8588239C
:1018200019F4CE010E94DB0BEA89FB898C899D8922
:101830000995DF91CF9108950F931F93FC01738B4E
:10184000628B558B448B378B268B118F008F1F91AA
:101850000F910895EE0FFF1F0590F491E02D09946C
:04186000F894FFCF2A
:10186400312E20486572652069732061207374727B
:10187400696E67206F66207465787400332E204883
:1018840065726520697320612062756666657220E1
:10189400636F6E7461696E696E6720736F6D652026
:1018A400646174612F2F546869732077696C6C20AC
:1018B4006E6F742073686F770000000000A1000051
:1018C4000000002003A100A100A100A1000000006D
:1018D4000020032106440665078606A100A100A195
:1018E4000000000000200321064406650786063830
:0618F40009C009A2070073
:00000001FF
